:020000040800F2
:10000000B808002001010008B32F0008532A000897
:10001000B12F00082D0F00080D350008000000006A
:1000200000000000000000000000000099320008FD
:10003000710F000800000000613100089B320008C9
:100040001B0100081B0100081B0100081B01000820
:100050001B0100081B010008730F0008790F00083E
:100060001B0100087F0F0008850F00081B01000816
:100070001B0100081B0100081B0100081B010008F0
:100080001B0100081B0100081B0100081B010008E0
:100090001B0100081B0100081B0100081B010008D0
:1000A0001B0100081B0100081B0100081B010008C0
:1000B0001B0100081B0100081B0100081B010008B0
:1000C0001B0100081B0100081B0100081B010008A0
:1000D0001B0100081B0100081B0100081B01000890
:1000E0001B0100081B0100081B010008DFF80CD0F1
:1000F00000F036FE00480047C9470008B808002055
:100100000648804706480047FEE7FEE7FEE7FEE7B1
:10011000FEE7FEE7FEE7FEE7FEE7FEE7173300082F
:10012000ED000008202A04DB203A21FA02F0002129
:10013000704721FA02F3D040C2F1200291400843F7
:1001400019467047A0F14101192900D820307047A5
:1001500040EA01039B0703D009E008C9121F08C049
:10016000042AFAD203E011F8013B00F8013B521EC9
:10017000F9D27047D2B201E000F8012B491EFBD240
:1001800070470022F6E710B513460A4604461946A2
:10019000FFF7F0FF204610BD421E12F8013F002B72
:1001A000FBD111F8013B02F8013B002BF9D170475C
:1001B000421C10F8011B0029FBD1801A704710B5B2
:1001C000002200E0521C835C8C5CA34201D1002B16
:1001D000F8D1D8B2E1B2401A10BD30B505460020C2
:1001E000034600E05B1C934205D2EC5CC85C201A1D
:1001F00001D1002CF6D130BD2DE9FF4F087883B036
:100200009946FF2805D0491C2D2804D00024002041
:1002100008E000200BE00124F9E700EB800003EB8D
:100220004000491C0B78FF2BF7D104B1404200235A
:100230000293147819461D462D2C01D02B2C04D185
:10024000521C2D2C13D000240294AA461478FF2CA3
:100250000FD00A25A3FB057801FB05814FF0000CA8
:1002600003FB0C11521CE3194AEB0101EEE70124D8
:10027000EAE7814453EA010002D019F5C87F06DAA3
:1002800003980021C0E9001107B0BDE8F08F0025F8
:10029000AE4E2F46DFF8B882184600F03DFDCDE99E
:1002A0000001B9F1000002DAC9F1000400E00446DF
:1002B0000023A74A1AEB030B42EB045A12E0E007B3
:1002C00007D02A4633463846414600F005FA07462D
:1002D00088462A4633461046194600F0FDF9054681
:1002E0000E466410002CEAD1DDE90001B9F1000FDF
:1002F0005A46534606DA00F061FA3A46434600F0A1
:100300005DFA05E000F0E8F93A46434600F0E4F90A
:10031000029A0AB181F00041039AC2E90001B3E7F1
:100320002DE9FF4F1F468DB0D7E901464FF0FF384A
:100330002E2045464FF000090B90B9696D1C0E98B0
:100340008847396A824688470028F6D1BAF1FF3FCC
:100350000AD024F4D064002E11DDBAF12B0F08D09E
:10036000BAF12D0F0BD102E0404611B08DE744F4F5
:100370008064B9696D1C0E9888478246761E69466E
:10038000600501D52D2000E02B208DF8000001F143
:10039000010B0DF1200809E0B9696D1C0E98884722
:1003A00082460F9844F40074761E0560002E02DD2C
:1003B000BAF1300FF0D00B998A453ED144F0800459
:1003C00006E00F99681CA9F1010944F40074086063
:1003D000B9696D1C761E0E98884782463028F0D089
:1003E0002BE00B998A4505D1200603D444F0800404
:1003F000761E18E0504603F0E1FA08B30DF1130140
:10040000761E44F400748B4508D2AAF130000BF834
:10041000010B200607D5A9F1010003E0200602D454
:1004200009F101008146A00502D50F99681C0860FA
:10043000B9696D1C0E9888478246002ED1DC53E0C6
:10044000002E51DDBAF1650F02D0BAF1450F4BD144
:10045000A00549D5B9696D1C24F44074761E0E9828
:1004600088478246002E0CDD2B2804D0BAF12D0FD0
:1004700007D144F48074B9696D1C0E988847824690
:10048000761EE00501D52D2100E02B2108F8011B87
:10049000CDF82C8021E00DF12901761E44F4007482
:1004A00088450CD2AAF1300010F0FF0088F8000057
:1004B00002D10B99884509D908F1010806E0E00549
:1004C00001D5244801E042F20F708146B9696D1CE4
:1004D0000E98884782460F980560002E04DD50462E
:1004E00003F06CFA0028D6D1F9690E988847FF20EE
:1004F0008BF8000088F800000020069007904B461B
:100500006A4608A906A8FFF777FEA00502D46FF097
:1005100001002AE714F0240F0AD0E00714D1DDE926
:1005200006123868031D3B600068C0E900120BE04A
:10053000DDE9060100F032FA0146E00704D138682F
:10054000021D3A600068016028460EE70000144072
:100550000000F03FF1D8FFFF70B5064603F002F946
:10056000046805460A220021304600F009FB2C6091
:1005700070BD420005D0C0F3C7525242914201DC27
:100580000020704700EBC15070472DE9FE4F8046B8
:1005900081EA0300C00F0C46009021F0004123F0D7
:1005A0000045B8EB0200A94105D2404621469046DD
:1005B0001C460B46024623F00040104347D0270D4F
:1005C000C7F30A00C3F30A510290401A0190402871
:1005D0006BDAC3F3130040F4801B0098924620B1FD
:1005E0000023D2EB030A63EB0B0B01985946C0F1D1
:1005F0004002504600F035FA06460D465046594630
:10060000019A00F03DFA10EB08006141002487EAEE
:10061000115284EAE7731A4340D0009A62B3019AF8
:10062000012A4FEA075215DC001B61EB02014FF073
:10063000004202EA0752CDE90042001C41F5801158
:1006400032462B4600F01AFB03B0BDE8F08F40465F
:100650002146F9E7001B61EB0201001C41F5801304
:1006600000185B412018A2F5001747EB030140EA90
:10067000D570B6196D4111E06D084FEA360645EAAE
:10068000C0754FEA0752001B61EB0201001C41F5E7
:10069000801149084FEA30000019514132462B467B
:1006A00003B0BDE8F04F00F0DABA00980122400034
:1006B0000023D0EB020263EBE073009821464FEA7F
:1006C000E074B8EB000061EB0401E9E783F000435C
:1006D0005BE781F0004158E72DE9FE4F81EA030412
:1006E00004F0004421F0004100944FF0000B23F08F
:1006F000004350EA01045ED052EA03045BD0C3F326
:100700000A54C1F30A552C44A4F2F3340194A0FB1B
:100710000254C1F3130141F48011C3F3130343F4F2
:10072000801301FB024400FB034E840A970A44EA4B
:10073000815447EA8357A4FB076802958D0A05FB9D
:1007400007854FEA932C04FB0C542705029D4FEAC2
:10075000065847EA1637B5EB08056EEB070C870E0F
:10076000920E47EA811742EA8312A7FB0201B6EB19
:100770000B0164EB00042B0D43EA0C335E1844EBD1
:100780001C50DA465146E7FB0201C5F313044FEA59
:100790000B3343EA14534FEA0432019C43EA060345
:1007A000A4F10C040294009CCDE900B400F066FAB8
:1007B00003B0BDE8F08F00200146F9E72DE9F04DC8
:1007C00081EA030404F0004B21F0004514464FF089
:1007D000000A23F0004150EA050220D054EA010249
:1007E0001DD0C5F30A570246C5F31303C1F3130026
:1007F000C1F30A5640F4801543F48013A7EB0608B2
:10080000101BD64608F2FD3873EB050002D308F141
:10081000010801E092185B41B8F1000F03DA0020F3
:100820000146BDE8F08D00204FF480110646844655
:100830000EE0171B73EB050705D3121B63EB0503D3
:1008400006434CEA010C49084FEA300092185B411C
:1008500050EA0107EDD152EA030012D082EA040007
:1008600083EA0501084305D0101BAB4106D20122E3
:10087000002306E000224FF0004302E06FF0010287
:1008800053101AEB06004CEB085110EB0A0041EB39
:100890000B01BDE8F04D00F0E2B9962300221146AD
:1008A00000F0AFB900F0004220F00040C10DC0F3ED
:1008B000160040F400007F2901DA002070479629D5
:1008C00003DCC1F19601C84001E096398840002A56
:1008D000F4D04042704770B5C1F30A5201F00045B0
:1008E0000024C1F3130140F2FF3341F480119A4216
:1008F00001DA002070BD40F233439A42A2F2334243
:1009000003DC5242FFF70EFC00E090402C43F1D094
:10091000404270BD00F0004230F000400AD0C10DEE
:1009200001F56071C0F3160042EA0151C2084007A8
:1009300011437047002001467047000030B5041E87
:1009400071F1000404DB4FF00044404264EB01010C
:10095000141E73F1000405DB1C464FF000435242A5
:1009600063EB04038B4208BF824230BD30B5041EE6
:1009700071F1000404DB4FF00044404264EB0101DC
:10098000141E73F1000405DB1C464FF00043524275
:1009900063EB0403994208BF904230BD01F000436D
:1009A00030B421F0004150EA010206D00A0DA2F550
:1009B0006072C1F31301002A02DC30BC00207047D2
:1009C000440F44EAC104C100E01830BC00EBC2503F
:1009D00000F00EB930B50B4601460020202201245C
:1009E00009E021FA02F59D4205D303FA02F5491BFD
:1009F00004FA02F52844151EA2F10102F1DC30BD13
:100A00002DE9F05F0546002092469B468846064643
:100A1000814640241BE02846414647462246FFF7D0
:100A200081FB53465A46C01A914110D311461846CD
:100A3000224600F016F82D1A67EB01084F462246B1
:100A40000120002100F00DF817EB00094E41201E97
:100A5000A4F10104DFDC484631462A464346BDE89E
:100A6000F09F202A04DB203A00FA02F100207047B0
:100A70009140C2F1200320FA03F3194390407047DC
:100A8000202A06DBCB17203A41FA02F043EAE07352
:100A900006E041FA02F3D040C2F12002914008433F
:100AA00019467047426842B1016811F8013B23B111
:100AB000521EC0E90012184670470121C160881E0D
:100AC000704742685AB1C368016843B983688B4272
:100AD00005D0491E521CC0E90012002070474FF09B
:100AE000FF3070470FB4002300B589B00CA9009106
:100AF0000B996FF00042CB601E4B06931E4B079381
:100B00000423CDE901321D4A089202466B460020BB
:100B1000FFF706FC09B05DF814FB70B586B0064619
:100B20004FF0FF300091CDE90101002015460C4641
:100B300004903246694604A8FFF7D4FF02460498A1
:100B4000211825B108B1084600E020462860049825
:100B500000280DD0002A02DD0098884208D0081B2A
:100B60000094CDE901043246694604A8FFF7BAFFB4
:100B700006B070BDA50A0008C30A00088D0D000864
:100B80002DE9F04791460F4680460446002614F8AA
:100B9000015B2DB100F0F6F80068405DC007F6D1AA
:100BA0002B2D02D02D2D18D0641E4A4639462046E2
:100BB00000F0F5F827B13968A14201D1C7F80080EB
:100BC00071054FF002040BD54042002803DD02F00E
:100BD000C9FD0460A007BDE8F08746F48066E4E73D
:100BE0000028F8DA02F0BEFD04606FF00040F2E782
:100BF0000029A8BF7047401C490008BF20F0010031
:100C0000704710B4B0FA80FC00FA0CF050EA01040E
:100C100004BF10BC704749B1CCF1200421FA04F4A0
:100C200011FA0CF118BF012121430843A3EB0C0179
:100C3000CB1D4FEA00614FEA102042BF002010BCDC
:100C4000704700EBC35010440029A4BF10BC70478C
:100C5000401C490008BF20F0010010BC704710B5CF
:100C6000141E73F1000408DA401C41F100019218CF
:100C70005B411A4301D120F0010010BD2DE9F04D78
:100C800092469B4611B1B1FA81F202E0B0FA80F2CD
:100C900020329046FFF7E5FE04460F4640EA0A0080
:100CA00041EA0B0153465A46084313D0114653EA12
:100CB000010019D0C8F140025046FFF733FA05464B
:100CC0000E46504659464246FFF7CBFE084305D034
:100CD000012004E020463946BDE8F08D00200543A0
:100CE00046EAE0762C4337430A986305E40AA0EB12
:100CF00008000022FD0A44EA47540A3002D50020C9
:100D00000146E9E7010510196941DDE908450019C7
:100D10006941BDE8F04DA2E70EB540F233420292C0
:100D20000022CDE900221346FFF7A8FF03B000BD63
:100D3000C1F30A52C1F3130140F2FF3341F48011B1
:100D40009A4202DA00200146704740F233439A4249
:100D5000A2F2334202DC5242FFF7E4B9FFF781BE50
:100D6000064C074D06E0E06840F0010394E80700F8
:100D700098471034AC42F6D3FFF7BCF9F0510008A5
:100D80001052000800487047EC51000810B50446A6
:100D9000FFF7F8FF0068005D00F0010010BD2DE9CD
:100DA000F05F82460078002715468B460AF1010461
:100DB000B946302801D09DB113E014F8010B01278A
:100DC000782803D0582801D045B10AE00DB1102D84
:100DD00007D10027102514F8010B02E0082500E0D8
:100DE0000A250026B0460EE005FB080005FB06F1CB
:100DF000012701EB10461FFA80F8B6F5803F00D3BB
:100E0000B94614F8010B294600F018F80028EBDA6F
:100E1000BBF1000F05D00FB1641E00E05446CBF8C3
:100E20000040B9F1000F06D002F09CFC02210160E5
:100E3000C81EBDE8F09F48EA0640FAE73A2800D20B
:100E4000303820F02002412A01D3A2F13700884235
:100E500001D34FF0FF30704770B5044600688168D9
:100E6000C943C90717D1816821F00101816000F0F1
:100E7000EFFB05460AE000BF00F0EAFB401B02283A
:100E800004D920688068C043C00706D02068806805
:100E9000C043C007F0D0002070BDA06A40F0100031
:100EA000A062E06A40F00100E062012070BD000035
:100EB000F8B500260446009600688168C943C90752
:100EC0002DD0816841F00101816016481649006803
:100ED000B0FBF1F000E0401E00900028FBD100F0D4
:100EE000B7FB054616E000BF00F0B2FB401B02282E
:100EF00010D920688068C043C0070BD0A06A40F0BA
:100F00001000A062E06A40F00100E06284F8246012
:100F10000120F8BD20688068C043C007E4D10020EC
:100F2000F8BD00009000002040420F00FEE70000E6
:100F300000224FF48071014800F085BB0008014099
:100F400001221102014800F07EBB000000080140B0
:100F500000224FF40071014800F075BB0008014009
:100F600001225102014800F06EBB00000008014060
:100F70007047012000F05EBA022000F05BBA082042
:100F800000F058BA102000F055BA0000F8B500245F
:100F9000009490F824202546012A12D0012280F8DE
:100FA00024204A681F23072A0DD20668776B521E39
:100FB00002EB820293409F430B6893401F43776389
:100FC00019E00220F8BD06680D2A0AD2376BD21F3D
:100FD00002EB820293409F430B6893401F433763A9
:100FE00009E0F76A0D3A02EB820293409F430B68D7
:100FF00093401F43F7620A68072306680A2A0AD348
:10100000F7680A3A02EB420293409F438B68934091
:101010001F43F76008E0376902EB420293409F43A9
:101020008B6893401F4337610A68102A01D0112A48
:1010300020D1124B02689A4217D193681B0219D42F
:10104000936843F4000393600968102912D10C4996
:101050000C4A0968B1FBF2F101EB8101490000E0A3
:10106000491E00910029FBD104E0816A41F0200172
:101070008162012480F824502046F8BD00240140FC
:101080009000002040420F000068C06C70470000D4
:101090002DE9F0414FF0000704003D467ED0A06AE4
:1010A000002628B9E66284F82460204600F07EF825
:1010B0002046FFF7D1FEA16AC90600D420B1A06A7C
:1010C00040F01000A06269E0A16A21F4885141F06B
:1010D0000201A1626268E169237B0A4347EA430196
:1010E0000A43A1684FF48077B94209D0012907D09B
:1010F0005FF0000194F814C0BCF1010F02D00AE0C7
:101100003946F7E7F3B1A36A43F02003A362E36A29
:1011100043F00103E3622368D3F804C02CF4694C64
:101120004CEA010CC3F804C021688B68DFF870C07A
:1011300003EA0C0313438B60A168B9420BD0012969
:1011400009D00CE0DFF85CC0A3690CEB43330B4320
:1011500043F40061DFE7218A0D05A5F580152168BC
:10116000CB6A23F470032B43CB62216889680E4B52
:101170001940914208D1E662A16A21F0020141F0D2
:101180000101A162BDE8F081A06A20F0020040F0F8
:101190001000A062E06A40F00100E0620120F1E787
:1011A000FDF7E1FF00E0FFFFFE0E1FFF00B585B079
:1011B0000021009101910291039100680E4988423B
:1011C00018D10E48816941F400718161816901F48F
:1011D00000710491816941F004018161806969466F
:1011E00000F00400049002200090032001900448C5
:1011F00000F02CF905B000BD0024014000100240B1
:101200000008014070B5044690F8240001280DD074
:10121000012084F824002046FFF74AFE02004FF028
:10122000000005D084F82400104670BD022070BD77
:10123000A16A40F20123994341F48071A1621F4DDC
:1012400023681F49AB4218D10E6816F4702F14D0D2
:10125000A66A46F48016A6620E68760505D5A66ACB
:1012600026F4005646F48056A662A66AF6040AD50D
:10127000E66A26F00606E66206E0A66A26F480160E
:10128000A6625E68E9E7E06284F824006FF002007D
:10129000186020688368C3F34243072B05D1A84236
:1012A00008D1096811F4702F04D0816841F48011CD
:1012B0008160B9E7816841F4A001F9E700280140A5
:1012C0000424014070B5044600F0C2F90546601CD4
:1012D00002D004480078044400F0BAF9401BA04250
:1012E000FAD370BD840000202DE9F041064600F0DD
:1012F000D7FE0027494D4A4C012E10D04948082EF0
:1013000042D0022E7ED106460221304600F08EF9F0
:101310000028F9D0206A401E206260D061E04FF4BE
:101320008061414800F087F9012001F0C4FC0128E8
:1013300003D13A488C3001F063FE022001F0BBFC7F
:10134000012868D1286847623448AC3001F058FE63
:1013500003F03AF814F81C3F3048227B217ACC3055
:1013600001F0A4FE2D4931A08C3102F0C7F92B48C1
:101370008C3002F0CDF82948AC3002F01BF9274838
:10138000CC3002F069F923E006460821304600F02F
:101390004DF90028F9D028684762206A401C206275
:1013A000052801D101202062012806D0022807D09B
:1013B000032808D004280BD108E001F08FFC07E0D7
:1013C00003F024F904E003F06BF901E003F0B2F953
:1013D0002868416ABDE8F04115A002F08FB90420E9
:1013E0002062012809D002280BD003280FD004283E
:1013F00011D1BDE8F04103F09DB9BDE8F04101F025
:101400006DBC00E007E0BDE8F04103F0FFB8BDE8C7
:10141000F04103F045B9BDE8F0810000C8010020AB
:1014200014000020000C01400008014025730A0050
:1014300025640A00044910B50A68024202D0086017
:10144000FFF752FF10BD0000140401402DE9F84FD2
:10145000DFF8B891002409F1040A0AF1040B2346CD
:101460000F270BF1040EC9E00125A5402A40AA422E
:101470007DD1674ED1F804C0ACEB0608B44532D03C
:1014800014DCBCF1030F3AD009DCBCF1000F2AD008
:10149000BCF1010F1CD0BCF1020F31D11DE0BCF139
:1014A000110F17D0BCF1120F2AD119E0B8F5881F1F
:1014B00019D006DCB8F5803F15D0B8F5801F1FD1D4
:1014C00011E0B8F5001F0ED0B8F5041F18D10AE0DE
:1014D000CB6815E0CB681B1D12E0CB6808330FE02A
:1014E000CB680C330CE08B682BB1012B4FF0080359
:1014F00003D0456104E0042302E0056100E000231D
:10150000FF2A01D8064601E000F104064FEA8405EF
:1015100001D9A5F12005D6F8008007FA05FC28EAD4
:101520000C0803FA05F548EA0508C6F800804D687E
:10153000ED0062D5374DAE6946F00106AE61AD698A
:1015400024F0030605F001050095334D06EB050C6C
:10155000DCF80850A607360F07FA06F825EA080552
:10156000DFF8B880404503D14FF0000817E044E0B1
:10157000DFF8AC80404502D14FF001080FE0DFF802
:10158000A480404502D14FF0020808E0DFF89880BF
:10159000404502D14FF0030801E04FF0040808FA7B
:1015A00006F848EA0508CCF808804D68D9F80060CC
:1015B000ED034D4601D5164300E096432E604D687D
:1015C000DAF80060AD03554601D5164300E09643B6
:1015D0002E604D68DBF80060ED025D4601D51643D4
:1015E00000E096432E604D68DEF80060AD0275465F
:1015F00001D5164300E096432E60641C0D682A4610
:10160000E5407FF431AFBDE8F88F000000040140F1
:1016100000001110001002400000014000080140CD
:10162000000C014000100140001401408068084097
:1016300000D001207047C26821EA02030A4043EA51
:101640000241016170470AB1016170470904FBE77B
:1016500001488068704700008400002070B50400D5
:1016600025D094F83D00002520B984F83C50204650
:1016700000F04EF9242084F83D002068016821F034
:10168000010101602068016841F4004101602068A7
:10169000016821F40041016000F01CFB4D4A6168C3
:1016A000914201D84C4900E04C49884201D20120C6
:1016B00070BD4B492368B0FBF1F15E6826F03F0630
:1016C0000E435E606368934206D94FF496735943A4
:1016D0004FF47A73B1FBF3F12368491C1E6A26F0BC
:1016E0003F06314319626168914210D84900401E9B
:1016F000B0FBF1F2521CC2F30B02042A01D2042007
:1017000022E0B0FBF1F0401CC0F30B001CE0A2682B
:10171000F2B301EBC10303EB0116431EB3FBF6F377
:101720005B1C43F480431B0549D092B301EBC1021B
:1017300002EB0111401EB0FBF1F0401CC0F30B00A6
:1017400040F4804040F400402168CA694CF6FF73C1
:101750009A431043C861D4E9071001432068026826
:1017600022F0C00211430160D4E903010143206863
:10177000826848F2FF339A4311438160D4E905013E
:1017800008432168CA6822F0FF021043C86001E0E4
:101790000EE016E02068016841F001010160256457
:1017A000202084F83D00256384F83E50002070BD61
:1017B00001EB4106431EB3FBF6F35B1CB3E70120CC
:1017C000C2E701EB4101401EB0FBF1F0401CC0F349
:1017D0000B00B7E7A086010080841E0000093D00D1
:1017E00040420F002DE9F84F1F4690468A460446B6
:1017F000DDF82890FFF72CFF054694F83D002028DF
:101800007FD11923012240492046009501F0AEF90D
:10181000002876D194F83C00012872D0012084F889
:101820003C0020680168C90703D1016841F001014B
:1018300001602068016821F400610160212084F8C2
:101840003D00102084F83E0000262664C4F8248061
:101850006785608D20852D48E0622B464A465146BB
:10186000204601F00FF990B9206841698069009025
:1018700036E02A464946204601F0F7F950B1206C7F
:10188000042804D12068016841F40071016001203E
:10189000BDE8F88F606A216800780861606A401CC2
:1018A0006062618D491E6185218D491E89B2218545
:1018B00022685369DB435B070BD451B10078106198
:1018C000606A401C6062608D401E6085208D401EF5
:1018D00020852A464946204601F022F90028CED12B
:1018E000208D0028C5D154F83D0B016841F40071EA
:1018F0000160202004F81E09E67766770020C7E71C
:10190000FFE70220C4E70000020010000000FFFF14
:1019100010B586B0002100910191029103910068F9
:101920000F4988421AD10F4CA06940F00800A0610D
:10193000A069694600F008000490C02000901220C1
:101940000190032003900848FFF780FDE06940F410
:101950000010E061E06900F40010049006B010BDD2
:101960000054004000100240000C01400248816811
:10197000027811448160704784000020074810B548
:10198000016841F010010160032000F075F80020AB
:1019900000F006F800F024F8002010BD00200240FE
:1019A00070B50D4D04464FF47A712878B1FBF0F014
:1019B0000A490968B1FBF0F000F05BFE48B9102C51
:1019C00007D200222146501E00F036F800206C603D
:1019D00070BD012070BD0000840000209000002038
:1019E0000C4808B5816941F001018161816901F00C
:1019F00001010091C16941F08051C161C06900F0ED
:101A0000805000900448416821F0E06141F000718D
:101A1000416008BD0010024000000140002809DBC1
:101A200000F01F02012191404009800000F1E020F8
:101A3000C0F8001170470000F0B40E4B1B680C4654
:101A4000C3F30223C3F10705042D00D90425191D92
:101A5000072901D2002300E0DB1E012606FA05F16A
:101A6000491E214099409E40761E16403143F0BCED
:101A700001F068BE0CED00E0064900F007020868BE
:101A80004FF6FF03184040EA0220034A1043086063
:101A9000704700000CED00E00000FA0506480268FF
:101AA00022F004020260012903D040BF20BF20BF02
:101AB000704730BF7047000010ED00E02DE9F8439B
:101AC00005460078354CC00754D0E0690026C000B8
:101AD00008D4E06940F08050E061E069012600F040
:101AE000805000902E480168C90512D401688046D4
:101AF00041F480710160FFF7ABFD074605E000BFD0
:101B0000FFF7A6FDC01B642823D8D8F80000C00545
:101B1000F6D5206A10F4407021D0A98801F44071F4
:101B200081421CD0206A1F49012220F440700A60C3
:101B300000220A602062C00711D0FFF789FD074626
:101B400041F2883808E000BFFFF782FDC11B414524
:101B500002D90320BDE8F883206A8007F4D5206A03
:101B6000696820F44070084320621EB1E06920F0EB
:101B70008050E0612878800705D56068A96820F466
:101B80004040084360602878C00605D56068E96871
:101B900020F48000084360600020DBE70010024072
:101BA00000700040400442422DE9F0470F46050016
:101BB00061D0434E306800F00700B84209D2306867
:101BC00020F0070038433060306800F00700B8426A
:101BD00051D128683B4C810712D5400703D5606876
:101BE00040F4E06060602878000703D5606840F446
:101BF000605060606068A96820F0F0000843606091
:101C00002878C00728D06868012810D021680228E9
:101C100010D0890700292EDA616821F00301014301
:101C20006160FFF715FD804641F288390DE02168BB
:101C30008903EFE78901EDE7FFF70AFDA0EB080153
:101C4000494502D90320BDE8F0876068696800F063
:101C50000C00B0EB810FEFD1306800F00700B84204
:101C60000BD9306820F0070038433060306800F04E
:101C70000700B84201D00120E5E72878400705D5E4
:101C80006068E96820F4E060084360602878000735
:101C900006D56068296920F4605040EAC1006060A0
:101CA00000F038F86168084AC1F30311515CC8407C
:101CB0000649086006480068FFF772FE0020C2E788
:101CC0000020024000100240525100089000002005
:101CD000880000200448054900684968044AC1F3A7
:101CE0000221515CC8407047900000200010024063
:101CF000625100080448054900684968044AC1F374
:101D0000C221515CC8407047900000200010024082
:101D10006251000812A185B00FC98DE80F0014A010
:101D2000144A006804905168134801F00C03042B16
:101D300010D0082B0ED1C1F38343C9031DF8030053
:101D40000AD5516804AAC1F34041515C0A4A504384
:101D5000B0FBF1F005B0704708494843FAE70000CE
:101D600002030405060708090A0B0C0D0E0F1010DC
:101D7000010200000010024000127A0000093D003C
:101D80002DE9F84F040070D02078C04DC00749D02D
:101D90006868C0F38100012807D06868C0F381003B
:101DA000022809D16868C00306D52868800339D5A0
:101DB00060680028E7D035E06068B0F5803F0BD060
:101DC00010B1B0F5A02F11D0286820F48030286021
:101DD000286820F4802002E0286840F480302860E1
:101DE000606890B1FFF734FC06460AE0286840F4CA
:101DF00080202860F0E700BFFFF72AFC801B6428E2
:101E000073D828688003F7D50CE0FFF721FC06465D
:101E100005E000BFFFF71CFC801B6428F0D8286891
:101E20008003F7D420789A4E80074FF001094FF0D5
:101E3000000839D5686810F00C0F07D06868C0F347
:101E40008100022809D16868C00306D42868800789
:101E500014D52069012808D110E02069B0B1C6F876
:101E60000090FFF7F5FB074605E00AE1FFF7F0FBFE
:101E7000C01B0228C4D828688007F7D52868616984
:101E800020F0F80040EAC10028600DE0C6F80080AC
:101E9000FFF7DEFB074604E0FFF7DAFBC01B022872
:101EA00023D828688007F7D4207800072CD57948F4
:101EB000A169D9B1C0F80090FFF7CAFB074604E05A
:101EC000FFF7C6FBC01B02280FD8686A8007F7D54A
:101ED00071484FF4FA510068B0FBF1F0009000BF78
:101EE0000098411E0091FAD20EE080E0C0F8008018
:101EF000FFF7AEFB074604E0FFF7AAFBC01B022872
:101F000075D8686A8007F7D42078400760D5E869FB
:101F10000027C00008D4E86940F08050E861E86913
:101F2000012700F0805000905C480168C90513D477
:101F30000168834641F480710160FFF789FB8246A6
:101F400006E000BFFFF784FBA0EB0A0064284ED830
:101F5000DBF80000C005F5D5E06801280AD008B11B
:101F6000052813D0286A20F001002862286A20F092
:101F7000040002E0286A40F001002862E06841F2B3
:101F8000883B98B1FFF764FB82460BE0286A40F07B
:101F900004002862EEE700BFFFF75AFBA0EB0A013E
:101FA00059455AD8286A8007F6D50CE0FFF750FB50
:101FB000824605E0FFF74CFBA0EB0A0159454CD8DF
:101FC000286A8007F6D41FB1E86920F08050E861E4
:101FD000E06988B36968C1F38101022944D002280D
:101FE000C6F8608004D0FFF733FB044638E034E0E5
:101FF000FFF72EFB074604E0FFF72AFBC01B022871
:102000002BD828688001F7D4206AB0F5803F05D12D
:102010006868A16820F4003008436860D4E90801CA
:102020000843696821F4741108436860C6F8609039
:10203000FFF70EFB044606E025E000BFFFF708FBB4
:10204000001B022809D828688001F7D51BE000BFD3
:10205000FFF7FEFA001B022802D90320BDE8F88F23
:1020600028688001F4D40EE00128F7D06868226A5D
:1020700000F48031914204D1616A00F4701088420A
:1020800001D00120EAE70020E8E70000001002404C
:102090000000424280044242900000200070004054
:1020A0004FF0E020016941F002010161704770B515
:1020B000040009D0606A002540B125616561A56210
:1020C00094F8510040B10CE0012070BD6068B0F59B
:1020D000827FF4D0E561F2E784F85050204600F0AA
:1020E0003FF8022084F851002068016821F0400187
:1020F0000160A088218900F4827001F40441084342
:10210000A18901F400610843217C01F00201084328
:10211000217D01F001010843218B01F40071084386
:10212000217F01F03801084394F8201001F080016C
:102130000843218D01F40051084321680860A0691B
:10214000042101EA1040216848602068C16921F437
:102150000061C1616565012084F85100002070BDF7
:1021600030B585B000240094019402940394006873
:102170001449884223D11448816941F48051816116
:10218000816901F480510491816941F00401816108
:1021900080690E4D00F004000490A0200090022001
:1021A00001900320039069462846FFF74FF940202D
:1021B000CDE90004694628460294FFF747F905B0C7
:1021C00030BD000000300140001002400008014016
:1021D0002DE9F84F044640680025984616460F46FC
:1021E0004FF0040BB0F5827F01D1A06888B194F85C
:1021F0005000012818D0012084F85000FFF728FA79
:10220000814694F851004FF0000A01280ED00225B3
:1022100082E084F851B013460A462046CDF800808B
:1022200000F036F9BDE8F88F0220FBE7002F72D0EE
:10223000002E70D084F851B0C4F854A0A763A687CC
:10224000E687C4F830A0A4F834A0A4F836A0C4F8F7
:1022500040A0C4F844A0A068B0F5004F09D12068A0
:10226000016821F0400101602068016821F480418B
:10227000016020680168490603D4016841F040010B
:102280000160E068D8B139E020688168C90709D0E9
:10229000007BA16B0870A06B401CA063E08F401E08
:1022A000E0870CE0FFF7D4F9A0EB0901414503D327
:1022B000B8F1FF3F03D036E0B8F1000F33D0E08F24
:1022C0000028E1D11DE020688168C90709D0C068F5
:1022D000A16B0880A06B801CA063E08F401EE0878C
:1022E0000CE0FFF7B5F9A0EB0901414503D3B8F1C4
:1022F000FF3F03D017E0B8F1000F14D0E08F0028A3
:10230000E1D14A464146204600F02BFF08B120208B
:102310006065606D00B10125012084F8510084F8EA
:1023200050A028467EE70325F6E72DE9F84F04463E
:1023300090F8500000271D461646894601280DD00A
:102340004FF0010B84F850B0FFF782F9804694F803
:102350005100BA46012804D0022793E00220BDE8CC
:10236000F88FB9F1000F73D0002E71D0032084F8DC
:102370005100C4F854A0C4F83090A686E686C4F88C
:1023800038A0A4F83CA0A4F83EA0C4F844A0C4F827
:1023900040A0A068B0F5004F09D12068016821F085
:1023A000400101602068016841F4804101602068BB
:1023B0000168490603D4016841F040010160E0680A
:1023C000B0F5006F606803D030B3012E24D041E037
:1023D00008B1012E1CD1206B21680088C86006E07E
:1023E00020688168890709D5216B0988C160206B45
:1023F000801C2063E08E401EE08609E0FFF728F98C
:10240000A0EB0800A84202D3681C01D031E07DB3E4
:10241000E08E0028E4D120E0206B2168007808736A
:1024200006E020688168890709D5216B0978017366
:10243000206B401C2063E08E401EE0860AE0FFF720
:1024400007F9A0EB0800A84203D3681C02D010E0F3
:1024500017E06DB1E08E0028E3D1424629462046C0
:1024600000F0ADFE08B120206065A06818B106E05C
:10247000FFE7032706E02068C16880680090606D70
:1024800000B1012784F851B084F850A0384666E7BF
:102490002DE9F84F044690F8500000270A9E1D468B
:1024A00092468B464FF0010901280ED0012084F896
:1024B0005000FFF7CDF8804694F85100616801287C
:1024C0000CD0B1F5827F07D102E00220BDE8F88F81
:1024D000A16809B9042801D00227C2E0BBF1000FAE
:1024E00027D0BAF1000F24D01DB394F8510004286E
:1024F00002D0052084F8510000206065C4F838A09F
:10250000E587A587C4F830B0E586A58620646064B9
:1025100020680168490603D4016841F04001016068
:10252000E068B0F5006F606805D0E8B3012D46D0D3
:102530007FE0012795E008B1012D39D1206B21689A
:102540000088C860206B801C2063E08E401EE086FF
:102550002EE02068816889070FD5E18E69B1B9F155
:10256000010F0AD1216B0988C160206B801C206398
:10257000E08E401EE0864FF0000920688168C907A0
:102580000CD0E18F51B1C068A16B0880A06B801C9A
:10259000A063E08F401EE0874FF00109FFF758F875
:1025A000A0EB0800B04200E009E001D3701C50D15C
:1025B000E08E0028CDD1E08F0028CAD13FE0206B0B
:1025C000216800780873206B401C2063E08E401E59
:1025D000E0862EE02068816889070FD5E18E69B119
:1025E000B9F1010F0AD1216B09780173206B401CEE
:1025F0002063E08E401EE0864FF00009206881686D
:10260000C9070CD0E18F51B1C068A16B0870A06BF5
:10261000401CA063E08F401EE0874FF00109FFF7E8
:1026200017F8A0EB0800B04202D3701C01D010E0F4
:102630007EB1E08E0028CDD1E08F0028CAD142467D
:102640003146204600F0BBFD28B1012720206065FF
:1026500007E0032705E0A06818B92068C168806812
:102660000090012084F85100002084F85000384682
:102670002CE710B5401EB0F1807F01D3012010BDC2
:102680004FF0E02460610F21601701F05BF800203B
:10269000A06107202061002010BD4FF0E0200169FB
:1026A00021F002010161704770B590F83C20012AC9
:1026B00026D0012480F83C40022280F83D200368A7
:1026C0005A689D6822F070060A6832435A600D4BC2
:1026D00002689A4208D0B2F1804F05D00A4B9A4264
:1026E00002D00A4B9A4204D1496825F0800319436D
:1026F000916080F83D40002180F83C10084670BD94
:10270000022070BD002C0140000400400008004081
:1027100010B5040003D094F83D0010B107E001208B
:1027200010BD002084F83C00204600F01FF8022075
:1027300084F83D00211D206800F0EEFD012084F8A2
:10274000460084F83E0084F83F0084F8400084F896
:10275000410084F8420084F8430084F8440084F87F
:10276000450084F83D00002010BD000008B5016858
:102770000B48B1F1804F0BD00A4A914207D1C16991
:1027800041F00401C161C06900F00400009008BD7F
:10279000C16941F00101C161C06900F00100F5E7C4
:1027A000001002400008004090F83D10012901D0BF
:1027B00001207047022180F83D1000680B498842D3
:1027C00008D0B0F1804F05D00949884202D00949AC
:1027D000884204D1816801F00701062903D001680D
:1027E00041F001010160002070470000002C014011
:1027F000000400400008004070B5044690F83C001A
:10280000012817D0012584F83C50022084F83D00AF
:102810002068826822F0770222F47F428260086892
:10282000502830D00DDC20284DD005DC98B310287E
:102830003BD148E0022070BD302844D0402834D13C
:1028400039E0602828D0702806D0B0F5805F2CD001
:10285000B0F5005F29D10AE0CB68D1E901212068F9
:1028600000F090FD2068816841F0770109E0CB68B5
:10287000D1E90121206800F085FD2068816841F4DC
:102880008041816011E0CA684968206800F08CFDD1
:102890005021206807E016E0CA684968206800F007
:1028A00094FD6021206800F077FD84F83D50002001
:1028B00084F83C0070BDCA684968206800F074FD67
:1028C00040212068EFE7226801461046EBE770B52B
:1028D000040004D094F83D00002510B106E001206A
:1028E00070BD84F83C50204600F022F8242084F883
:1028F0003D002068C16821F40051C160204600F00D
:1029000077FD2068016921F49041016120684169E7
:1029100021F02A0141612068C16841F40051C16081
:102920002564202084F83D0084F83E00002070BD1E
:1029300030B585B00024009401940294039400689B
:102940001449884223D11448C16941F40031C1615E
:10295000C16901F400310491816941F00401816190
:1029600080690E4D00F004000490042000900220C5
:1029700001900320039069462846FEF767FD082072
:10298000CDE90004694628460294FEF75FFD05B0D4
:1029900030BD00000044004000100240000801402B
:1029A0002DE9F843044690F83D001F4616460D46B3
:1029B00020284CD1C5B1BEB194F83C00012846D0C6
:1029C000012084F83C004FF00008C4F8408021202A
:1029D00084F83D00FEF73CFEA6848146E684A068AC
:1029E000B0F5805F03D004E00120BDE8F8832069E2
:1029F00028B12E465FF0000584F83C800EE00026EA
:102A0000FAE78021204600F04FFDA0B9AEB116F8DC
:102A1000010B21684860E08C401EE084E08C4B464E
:102A20004FF0000200970028EBD14FF04001204604
:102A300000F03AFD30B10320D7E735F8020BC0F3C0
:102A40000800E6E7202084F83D000020CDE70220C2
:102A5000CBE7FEE701684A69D24352050FD46FF411
:102A600080624A61002140F8301F20224273817346
:102A7000026942F0040202610173012070470020E4
:102A800070470000F8B50446C06A1E460D4617465A
:102A9000082807D0012805D010F5803F02D0206B10
:102AA000122804D12068016841F480710160134646
:102AB00000224FF001112046009600F057F840B177
:102AC00020680068C00502D54FF400702064032020
:102AD000F8BD2069B0F5804F0ED00620216800EACD
:102AE000D51040F0F000086133463A460B492046C5
:102AF00000F070F878B902E005F0FE0000E0E8B2FE
:102B000021680861054933463A46891F204600F08E
:102B100061F80028DCD00120F8BD000008000100A9
:102B200070B516460D4604460DE02046FFF792FFAD
:102B300008B1012070BD681C05D0FEF789FD801B1F
:102B4000A84207D835B120684069C0434007ECD49B
:102B5000002070BD002044F8300F20216173A07365
:102B6000216941F0200121612073E2E72DE9F0475E
:102B70001E4690460D460446C1F30747DDF82090F7
:102B800008E0701C06D0FEF763FDA0EB0900B04220
:102B90000FD876B12068012F18D0806925EA00008F
:102BA0000004000C14D000214145EAD00020BDE80B
:102BB000F087002044F8300F20216173A073216951
:102BC00041F02001216120730120F0E74069E5E731
:102BD0000121E9E72DE9F0479A4691460E46044661
:102BE00000254FF02008C1F3074725E02068406921
:102BF000C043400514D42068016841F400710160AD
:102C000021686FF480604861256384F83D8084F812
:102C10003E50206C40F00400206484F83C501FE0DB
:102C2000B9F1FF3F08D0FEF713FDA0EB0A014945BB
:102C30000CD8B9F1000F09D02068012F13D080699A
:102C400026EA00000004000C0BD0CFE744F8305F08
:102C500084F80D80A573206940F020002061257361
:102C60000120BDE8F0874069EAE770B516460D46D9
:102C700004460DE02046FFF7EDFE08B1012070BDCF
:102C8000681C05D0FEF7E4FC801BA84207D835B1CC
:102C900020684069C0430006ECD4002070BD0020CD
:102CA00044F8300F20216173A073216941F02001A5
:102CB00021612073E2E710B50446072001F0DEFD34
:102CC000410608D510EA440F05D04021072001F045
:102CD000EFFD012010BD002010BD000010B501F077
:102CE000EFFB0021084601F030FC0DA001F084FC50
:102CF0000021012001F029FC0CA001F07DFC002145
:102D0000022001F022FC0DA001F076FC002103203E
:102D100001F01BFCBDE810400CA001F06DBC0000F0
:102D20005472616E6720636875000000536D6172B4
:102D3000742047617264656E000000004D6F692069
:102D400063686F6E206E75740000000054726169D4
:102D50002020202020202020202020506861690091
:102D60003EB5002410480094019402940D498460FB
:102D7000016001250573047505614FF4602144600D
:102D8000C161FEF785F908B172B6FEE70095CDE99D
:102D9000015469460448FEF7F9F8002801D072B6DC
:102DA000FEE73EBD00240140A40000202DE9F043D1
:102DB00085B00024364800940194029403948169FC
:102DC00041F020018161816901F020010491816954
:102DD00041F004018161816901F00401049181697C
:102DE00041F0080181618069012200F00800DFF8EC
:102DF000A4809603049031464046FEF724FCDFF899
:102E000098904FF4E067002239464846FEF71BFCD5
:102E10001B20009021480125CDE901056946404667
:102E2000FEF714FB0320CDE90240CDE900656946B9
:102E30004046FEF70BFB0220CDE90240CDE90075CC
:102E400069464846FEF702FB002201210620FEF7F4
:102E5000F3FD0620FEF7E2FD002202210720FEF727
:102E6000EBFD0720FEF7DAFD002202210920FEF724
:102E7000E3FD0920FEF7D2FD002202210A20FEF721
:102E8000DBFD0A20FEF7CAFD05B0BDE8F0830000B7
:102E900000100240000C0140000801400000211019
:102EA0000F4810B50D4901604FF482714160002157
:102EB0008160C1604FF400720161C0E905121822FF
:102EC000C0E90721416281620A21C162FFF7EFF880
:102ED000002801D072B6FEE710BD000000300140AE
:102EE0002801002010B586B00024164800940194F3
:102EF0000294039404944FF08041059401604721AB
:102F0000C0E901144FF6FF71C0E903148461FFF7B3
:102F1000FFFB08B172B6FEE74FF48050009069469F
:102F20000848FFF769FC08B172B6FEE7049404A9EB
:102F300004480594FFF7B8FB002801D072B6FEE7FD
:102F400006B010BD8001002010B586B000241748DF
:102F5000009401940294039404941349059401602D
:102F600048F69F41C0E901144FF6FF71C0E9031410
:102F70008461FFF7CDFB08B172B6FEE74FF48050D5
:102F8000009069460948FFF737FC08B172B6FEE7C2
:102F9000049404A905480594FFF786FB002801D096
:102FA00072B6FEE706B010BD00080040C801002060
:102FB000FEE7FEE710B5FDF7BBFF002001F0AAFC1D
:102FC0000021084601F074FC0021012001F070FC92
:102FD0000021022001F06CFC0321084601F068FC8E
:102FE0000021042001F064FC0021052001F060FCB8
:102FF0000E21062001F05CFCBDE81040FDF7A0BFEB
:1030000038B5044600208DF80000FDF7A1FF6120CF
:103010008DF800006423012269460A48FFF785F90C
:103020004FF47A73202221460648FFF7D1F8FDF7C6
:1030300097FF0120FEF746F9E2208DF8000001F02D
:10304000FFFC38BD2801002070B50D460446FDF791
:103050006FFF072001F05EFC2946052001F028FCE7
:10306000022001F00BFC40F00601022001F020FCE0
:10307000052221460B2001F031FC22210C2001F019
:1030800017FC2021122001F013FC2021132001F055
:103090000FFC002001F0F2FB40F00301002001F0E2
:1030A00007FCBDE87040FDF74BBF00002DE9F04381
:1030B000002489B01F46914688460546264601E011
:1030C0002E55641C2846FDF773F8A042F8D83A46FE
:1030D0001AA106A800F022FB424618A1684600F09B
:1030E0001DFB4A4615A103A800F018FB14A12846B1
:1030F000FDF752F869462846FDF74EF812A128461A
:10310000FDF74AF811A12846FDF746F803A928461D
:10311000FDF742F80CA12846FDF73EF80DA1284620
:10312000FDF73AF806A92846FDF736F80BA1284620
:10313000FDF732F809B0BDE8F08300002564000017
:103140007B225433223A2200222C000022483322D0
:103150003A220000224D33223A220000227D000054
:103160007047F8B5044640684FF48273984217D10F
:10317000A0684FF48065B0F5004F01D0A8420FD190
:103180002068066826F0400606606068984207D10D
:10319000A068A84204D100920B460022012103E05E
:1031A00000920B4600228021204600F019F80028EA
:1031B00004D0606D40F0200060650320F8BD38B594
:1031C0000B46009204460022802100F009F80028F6
:1031D00004D0606D40F020006065032038BD000021
:1031E0002DE9F8431E46914688460446089DFEF7A1
:1031F0002FFA401B351AFEF72BFA074625480068C0
:10320000C0F3CB30684338E0701C37D0FEF720FAAB
:10321000C01BA84203D215B1009860B32CE020680F
:10322000416821F0E00141606068B0F5827F0BD118
:10323000A068B0F5004F02D0B0F5806F04D12068CF
:10324000016821F040010160A06AB0F5005F09D17A
:103250002068016821F4005101602068016841F490
:1032600000510160012084F85100002084F85000D2
:103270000320BDE8F8830025401E00902068816887
:1032800038EA010004D000214945BDD10020F0E713
:103290000121F9E7900000207047FEF767BB30B5C9
:1032A00093B028216846FCF76CFF14210AA8FCF7AC
:1032B00068FF002501200F951095119501041295C6
:1032C0008DE8230004904FF4E010CDE908100224AB
:1032D00007946846FEF754FD08B172B6FEE70AA9E6
:1032E0000F2081E831004FF48060CDE90D05022107
:1032F0000AA8FEF759FC08B172B6FEE74FF4004089
:1033000011900F940FA8FEF7D9FB002801D072B6D8
:10331000FEE713B030BD7047F0B50268164B174C8E
:10332000174D4FF08047984205D0B84203D0A042D5
:1033300001D0A84203D122F070064A683243984275
:1033400005D0B84203D0A04201D0A84203D122F454
:103350004074CA6822434C6922F080022243026012
:103360008A68C2620A688262984201D1096901636F
:1033700001214161F0BD0000002C0140000400402B
:103380000008004010B5846842EA032224F47F4418
:103390000A432243826010BD826822F070020A4311
:1033A00042F007018160704710B5036A046A24F097
:1033B00001040462846924F0F00444EA021423F056
:1033C0000A020A438461026210BD10B5036A23F049
:1033D000100303628369046A23F4704343EA0232F0
:1033E00024F0A00343EA01118261016210BD0000D4
:1033F00070B5044600680169E26821F44051114348
:1034000001612169A0680843616908432168CA68AD
:1034100041F20C639A430243CA6020684169A26981
:1034200021F44071114341611E492068884202D154
:10343000FEF760FC01E0FEF74DFC00EBC00101EB84
:103440000012606864218000B2FBF0F3B3FBF1F37B
:103450006FF018067343B2FBF0F5B2FBF0F605EB24
:103460008305322303EB0515B5FBF1F5B6FBF1F649
:1034700005F0F00505EB0615B2FBF0F6B2FBF0F037
:10348000B0FBF1F06FF01802504306EB800003EB45
:103490000010B0FBF1F0216800F00F0028448860B4
:1034A00070BD0000003801402DE9F04198461746F4
:1034B0000E460446069D1DE0681C1BD02DB1FEF78C
:1034C000C7F8A0EB0800A84214D92068C16821F40D
:1034D000D071C1602068416921F001014161202063
:1034E00084F83D0084F83E00002084F83C0003206E
:1034F000BDE8F0812068006836EA000004D00020B2
:10350000B842D9D00020F3E70120F9E7FEE7000038
:1035100010B500F041FE1C4CA063B0B11BA000F040
:10352000EDF81DA1A06B00F029FE60641BA1A06B4B
:1035300000F024FEA0641AA1A06B00F01FFEE0645E
:10354000606CC168102905D008E0BDE8104015A0E6
:1035500000F0D4B80069FCF7FFFF2070A06CC168D0
:10356000102903D10069FCF7F7FF6070E06CC168B7
:10357000102903D10069FCF7EFFFA070A06BBDE834
:10358000104000F0D7BD0000140000204A534F4EF9
:10359000204F4B450D0A0000543100004831000017
:1035A0004D3100004A534F4E31206572726F720DDB
:1035B0000A00000010B500F0EFFD1C4CE063B0B154
:1035C0001BA000F09BF81DA1E06B00F0D7FD20656B
:1035D0001BA1E06B00F0D2FD60651AA1E06B00F06A
:1035E000CDFDA065206DC168102905D008E0BDE8BB
:1035F000104015A000F082B80069FCF7ADFFE07044
:10360000606DC168102903D10069FCF7A5FF207126
:10361000A06DC168102903D10069FCF79DFF60719E
:10362000E06BBDE8104000F085BD000014000020F4
:103630004A534F4E204F4B450D0A000054320000B4
:10364000483200004D3200004A534F4E322065721E
:10365000726F720D0A00000010B500F09DFD1C4C49
:103660002064B0B11BA000F049F81DA1206C00F04F
:1036700085FDE0651BA1206C00F080FD20661AA18D
:10368000206C00F07BFD6066E06DC168102905D0FC
:1036900008E0BDE8104015A000F030B80069FCF764
:1036A0005BFFA071206EC168102903D10069FCF78F
:1036B00053FFE071606EC168102903D10069FCF707
:1036C0004BFF2072206CBDE8104000F033BD0000BD
:1036D000140000204A534F4E204F4B450D0A000066
:1036E00054330000483300004D3300004A534F4E1E
:1036F00033206572726F720D0A0000000FB4054B23
:1037000010B503A9044A029800F060F910BC5DF8F6
:1037100014FB000035430008940000200FB4084B50
:1037200010B504A902AA039800F050F9044602A9B2
:10373000002000F0E2FC204610BC5DF814FB000005
:10374000FB4000080907090E002804DB00F1E02017
:1037500080F80014704700F00F0000F1E02080F8BE
:10376000141D704700487047A000002030B528B1F4
:10377000144C031F002021680A4605E0084630BDAE
:103780009A4203D810465268002AF9D1002800D086
:1037900041680BD00468A3EB0005A54204D11B6867
:1037A0001C440346046002E0436000E023603AB139
:1037B0001C68D51AA54203D115682C441C605268B8
:1037C0005A6030BD980000202DE9F04782460F4C2A
:1037D00010480D4E0E4F001B4FF0000820F007055B
:1037E0004FF0010900221146504600F041FE00282A
:1037F00002D1306810B10020BDE8F0873C60C4E918
:103800000058C6F80090EDE79C000020BC020020A4
:1038100098000020B804002002E008C8121F08C168
:10382000002AFAD170477047002001E001C1121F41
:10383000002AFBD1704700002DE9FF5F82B0002114
:10384000DDE90430020DDDF840B0034318D044F642
:103850001050A2F2FF3242431514119801281FD0D4
:10386000A5EB0B00401C5FEA000A4FF000064E4F2C
:10387000DFF83891B046504615D5CAF1000413E080
:10388000119801244AA3012801D16FEA0B01029883
:10389000119AC0E90031C0E9024206B0BDE8F09FCC
:1038A000CBF10000DFE704460021404A491842EB13
:1038B0000450CDE9001012E0E00707D032463B4645
:1038C00040464946FCF708FF8046894632463B465B
:1038D00010461946FCF700FF06460F466410002C00
:1038E000EAD1DDE90401DDE90023BAF1000F06DACF
:1038F000FCF7F2FE42464B46FCF7EEFE05E0FCF715
:103900005DFF42464B46FCF759FF04460E46002237
:10391000284BFDF72BF803D84FF0FF30014607E0A6
:103920000022254B20463146FCF72FFEFDF700FA1A
:10393000102409E0002C0ADB0A220023FDF760F8BE
:10394000039B30321A55641E50EA0102F2D1641C06
:10395000039AC4F111031444119A012A03D00122DD
:1039600008430DD10AE0084304D000204FF0110BAA
:10397000119072E7A3EB0B056D1E0DE05B4504DDB6
:103980004FF0000205F1010504E003DA4FF00002F8
:10399000A5F10105002AECD002981199C0E9023185
:1039A000C0E9004579E70000000014400000F03F46
:1039B000300000000000F0430000E03F30380A28EB
:1039C00001D2012070470020704700002DE9FF4F11
:1039D00095B09B468946064600250FE2252877D1FB
:1039E00000242746F84A0121059400E0044316F814
:1039F000013F203B01FA03F01042F7D130782A282A
:103A000011D06FF02F033078A0F13002092A16D8B8
:103A1000059A44F0020402EB820203EB42021044D6
:103A2000761C0590EFE759F8042B0592002A03DA7B
:103A3000504244F40054059044F00204761C30785F
:103A40002E2816D116F8010F44F004042A280DD0B0
:103A50006FF02F023078A0F13003092B09D807EB63
:103A6000870302EB4303C718761CF3E759F8047B7E
:103A7000761C30786C280FD006DC4C2817D06828CC
:103A80000DD06A2814D104E0742810D07A280FD100
:103A90000DE044F400140AE044F4801401E044F41E
:103AA00040147278824202D104F58014761C761C90
:103AB000307866280BD013DC582877D009DC002832
:103AC00075D04528F6D04628F4D047281AD19DE174
:103AD00018E0632835D0642879D0652812D195E1A3
:103AE000702873D008DC6728F1D069286FD06E2861
:103AF0000DD06F2806D1B5E073282CD0752875D06D
:103B0000782874D05A46179990476D1C75E1C4F314
:103B10000250022809D003280DD0D9F8001004283B
:103B20000DD00D6009F1040967E1D9F80010EA171A
:103B3000C1E90052F6E7D9F800100D80F2E70D70E8
:103B4000F0E719F8041B8DF8001000208DF8010033
:103B5000EA46012003E059F804AB4FF0FF3061075B
:103B60004FF0000102D40DE008F101018846B9428E
:103B70000FDA8045F8DB1AF808100029F4D108E0C4
:103B800008F1010188468142FADB1AF80810002981
:103B9000F6D105985B46A0EB080721463846179AF0
:103BA00000F094FA284400EB080507E04DE029E115
:103BB0000DE01AF8010B5A4617999047B8F1010821
:103BC000F7D25B4621463846179A13E142E00A22B3
:103BD0000092C4F302524FF0000A022A08D059F8AA
:103BE00004CB032A4FEAEC710AD00DE029E02AE069
:103BF00009F1070121F00702F2E802C1914609E04C
:103C00000FFA8CFC4FEAEC71042A03D14FFA8CFCBA
:103C10004FEAEC71002907DA0A460021DCF1000CBA
:103C200061EB02012D2202E0220504D52B228DF842
:103C30000420012203E0E20701D02022F7E79046AA
:103C400059E00A2102E010220DE010214FF0000A95
:103C500000910BE010224FF0000A44F00404082702
:103C6000009203E008224FF0000A0092C4F30252CF
:103C7000022A05D059F804CB0021032A08D009E014
:103C800009F1070121F00702F2E802C1914605E0BF
:103C90001FFA8CFC042A01D10CF0FF0C4FF0000835
:103CA000220728D5702806D0009B83F0100353EA22
:103CB0000A0305D00EE040228DF80420012208E01E
:103CC0005CEA010206D030228DF804208DF8050050
:103CD00002229046009B83F0080353EA0A030AD1AC
:103CE0005CEA010201D1620705D530228DF804207B
:103CF0004FF001087F1E582804D034A003900EA86E
:103D000002900DE036A0F9E753466046009AFCF7B2
:103D100077FE84460398825C0298401E02900270EF
:103D20005CEA0100F0D1029806A9081A00F1200A05
:103D3000600702D524F4803400E00127574502DDF6
:103D4000A7EB0A0000E0002000EB0A0100900598B4
:103D50004144401A0590E00306D45B462146179A79
:103D6000059800F0B3F90544002706E001A85A467B
:103D7000C05D179990476D1C7F1C4745F6DBE0033B
:103D80000CD55B462146179A059800F09FF905442B
:103D900004E030205A46179990476D1C0099481E40
:103DA00000900029F5DC08E0029802995A46007854
:103DB000491C0291179990476D1CBAF10001AAF1B4
:103DC000010AF1DC65E100000928010030313233DD
:103DD0003435363738396162636465660000000047
:103DE0003031323334353637383941424344454631
:103DF0000000000000F058F90544761C30780028D7
:103E00007FF4ECAD19B02846BDE8F08F620700D40E
:103E1000062709F1070222F0070CFCE80223E1461D
:103E200003F000485FEA080C02D00FF2702C0DE09E
:103E30005FEA045C02D50FF2682C07E05FEAC47CFD
:103E400002D00FF2602C01E0AFF2700C4FF0FF389F
:103E500023F00043CDF850C065280CD006DC45287F
:103E600009D046281DD047283DD13DE0662818D00E
:103E700067287ED138E00021112F01DB112000E0FE
:103E8000781CCDE9000106A90EA8FFF7D5FCDDE9F5
:103E90000F010E9A03910021009207F1010A04918B
:103EA0004DE04FF000400097CDE9011006A90EA8A3
:103EB000FFF7C2FCDDE90F0203920E9B119900226D
:103EC000DDF80CA00093049211B9791C00EB010AF3
:103ED000B7EB0A0004D4C0F1FF3007F1010A0490E7
:103EE000AAEB0700019044E0012F00DA012700212E
:103EF000112F01DD112000E03846CDE9000106A9AF
:103F00000EA8FFF799FCDDE90F010E9A039100213D
:103F100004910092BA4621070CD40399514500DA66
:103F20008A46BAF1010F05DD009AAAF10101515C40
:103F3000302908D0B84202DA10F1040F06DA012164
:103F4000CDE9011015E0AAF10101E9E7002805DC3F
:103F5000049901440491AAEB000102E0411C51457F
:103F600000DD8A460499401A401C01904FF0004041
:103F70000290200704D40198504501DBCDF804805D
:103F800000208DF84F0002980DF14F07B0F1004F5F
:103F900025D02B200E9002984FF0020800280CDA52
:103FA000404202902D200E9007E00A210298FCF773
:103FB00011FD3031029007F8011DB8F10001A8F1A0
:103FC0000108F2DC02980028EFD1791E0E980870E3
:103FD000307800F0200040F0450007F8020D12A8EC
:103FE000C01B00F107081498007800B1012000EB15
:103FF0000A01019801EBE07105984144401A401E06
:104000000590E00306D45B462146179A059800F018
:104010005DF805441498007818B15A4617999047EE
:104020006D1CE00324D55B462146179A059800F0E5
:104030004DF805441CE00498002807DBDDE9030186
:10404000884203DD0098405C179901E01799302001
:104050005A469047049805F10105401C04900198C8
:10406000401E019004D12E205A46179990476D1C8E
:10407000BAF10001AAF1010ADDDC05E017F8010B35
:104080005A46179990476D1CB8F10001A8F1010834
:10409000F4DC5B462146179A0598ABE62D0000003C
:1040A0002B000000200000002DE9F041044600250F
:1040B0001E461746880404D405E039462020B04740
:1040C0006D1C641EF9D52846BDE8F0812DE9F0414C
:1040D000044600251E469046C80301D5302700E05F
:1040E0002027880404D505E041463846B0476D1CBA
:1040F000641EF9D52846BDE8F0810A68531C0B60A0
:104100001070704710B530B1036823B1D0E90121B8
:10411000914201D204E0002010BD491C816020B111
:10412000914202D25C5C202CF7D99142F4D1491E15
:10413000816010BD70B504460F4E19E0A089256856
:10414000C0050AD4A06820B1FFF7F4FFA089C0051C
:1041500003D4206908B171688847A089800503D419
:10416000206A08B1716888477168204688472C46E4
:10417000002CE3D170BD000008000020002200F0F8
:10418000E5B810B5016828208847040002D028212E
:10419000FBF7F7FF204610BD0022114600F06EB875
:1041A0002DE9F04788B00F4604469A4616461C2172
:1041B0006846FBF7E6FF2F480025002C05604560A8
:1041C00055D08146E7B3CDE900470295D9E90212FF
:1041D000D9F810000491CDE9052009F10800FFF796
:1041E000D0FF5FEA00082BD000986F4608B1029814
:1041F00008B100270BE00198042808D903221EA16A
:104200000098FBF7EAFF10B90298C01C02903846EC
:10421000FFF778FF0146404600F02CFE68B1BAF186
:10422000000F13D06846FFF76DFFDDE90101814201
:1042300003D202990098405C40B14046FFF77AFFF4
:10424000DDE9011088420AD205460BE01EB1029951
:10425000009808443060404608B0BDE8F087081E6A
:1042600000D0451E0EB160193060C9E9004500203C
:10427000F2E7000000000020EFBBBF0070B515465C
:104280000E46040009D0FBF793FF411C2B46324633
:104290002046BDE87040FFF783BF002070BD0000DE
:1042A00070B5282000F01AF80B4D4FF480442146D9
:1042B0002846FDF7BBF960B9502000F00FF8214601
:1042C0002846FDF7B3F920B1322000F007F80120AD
:1042D00070BD002070BD0000000C014004490022A8
:1042E0000B685A6209684A6A8242FCD37047000030
:1042F0008001002070B50E4D4FF4804421462846C1
:1043000000F0A4FE002221462846FDF79CF9192062
:10431000FCF7D8FF012221462846FDF794F91E201C
:10432000FFF7DCFF21462846BDE8704000F084BE60
:10433000000C014013B54FF6FF7301226946024895
:10434000FEF72EFB00981CBD100200202DE9F04165
:104350008846A8B3B8F1000F33D084680AB90AE0E0
:1043600024686CB3216A59B34046FBF728FF002844
:10437000F6D120E024681CB3266A5FEA0805F9D06C
:10438000002EF7D0B54218D002E098B16D1C761C13
:104390002878FBF7D7FE07463078FBF7D3FE874235
:1043A0002878F2D0FBF7CEFE05463078FBF7CAFE40
:1043B0008542DFD124B1206A10B12046BDE8F081EA
:1043C000FFE70020FAE7000070B52548FEF7ECF99A
:1043D000FFF790FFFFF764FF224C608100F0C8FDFB
:1043E000A08100F0C5FDE08100F0C2FD208200F058
:1043F000BFFD608200F0BCFDA082208A2083A189DD
:10440000E182C4E909011648DC38FCF73DFEFCF7FF
:1044100044FA6FF00B012063FCF7ABF8FCF77AFA73
:10442000114E4FF066352A463346FCF755F9FCF736
:10443000B5FAE062FCF76EFA2A463346FCF7BEF99D
:104440000A4D00222B46FCF747F900222B46FCF7C9
:1044500040F9FCF7A3FA6063FCF724FAE06170BD51
:10446000800100201400002066660A4000005940C8
:104470002DE9F0410B3020F00706104D19E02068BF
:10448000B04215D3B0420AD9871B201DD4F804804E
:10449000FBF75EFEA019C0E90078286004E06068C0
:1044A0002860201DFBF754FE201D2660BDE8F0812A
:1044B000251D2C68002CE2D10020F7E79800002091
:1044C00010B5012000F058F8BDE810400A20FCF7B4
:1044D000F9BE10B53220FCF7F5FE302000F04CF8A4
:1044E0000520FCF7EFFE302000F046F80120FCF735
:1044F000E9FE302000F040F80A20FCF7E3FE20201F
:1045000000F03AF80A20FCF7DDFE282000F034F82D
:104510000120FCF7D7FE082000F02EF80120FCF760
:10452000D1FE012000F028F80120FCF7CBFE01208D
:10453000FCF7C8FE062000F01FF80120FCF7C2FEC1
:10454000BDE810400C2000F017B830B1012807D0AA
:10455000022808D003280BD108E041F0800107E0D1
:1045600041F0C00104E041F0940101E041F0D401C8
:10457000C8B200F001B800001CB500F0F00141F035
:104580000C028DF8042041F0080100018DF805109F
:1045900040F00C018DF8061040F008008DF807007F
:1045A00064200090042301AA4E210248FDF71AF965
:1045B0001CBD0000D40000201CB500F0F00141F04B
:1045C0000D028DF8042041F0090100018DF805105D
:1045D00040F00D018DF8061040F009008DF807003D
:1045E00064200090042301AA4E210248FDF7FAF846
:1045F0001CBD0000D400002010B5044602E0641C7D
:10460000FFF7DAFF20780028F9D110BD10B590B07F
:10461000FFF756FF00210846FFF797FF14A0FFF7AA
:10462000EBFF00210120FFF790FF134C13A1684618
:104630002278FFF773F86846FFF7DEFF00210220BB
:10464000FFF783FF627810A105A8FFF767F805A8B8
:10465000FFF7D2FF00210320FFF777FFA2780DA11B
:104660000AA8FFF75BF80AA8FFF7C6FF10B010BD55
:104670004E4F4445310000001400002054656D7019
:104680003A2025642000000048756D693A202564B1
:10469000200000004D6F69733A202564200000005F
:1046A00010B590B0FFF70CFF00210846FFF74DFF53
:1046B00014A0FFF7A1FF00210120FFF746FF134CD4
:1046C00013A16846E278FFF729F86846FFF794FFE0
:1046D00000210220FFF739FF227910A105A8FFF77A
:1046E0001DF805A8FFF788FF00210320FFF72DFF25
:1046F00062790DA10AA8FFF711F80AA8FFF77CFF5D
:1047000010B010BD4E4F4445320000001400002090
:1047100054656D703A2025642000000048756D696D
:104720003A202564200000004D6F69733A2025640B
:104730002000000010B590B0FFF7C2FE002108462F
:10474000FFF703FF14A0FFF757FF00210120FFF739
:10475000FCFE134C13A16846A279FEF7DFFF684602
:10476000FFF74AFF00210220FFF7EFFEE27910A1D8
:1047700005A8FEF7D3FF05A8FFF73EFF00210320A1
:10478000FFF7E3FE227A0DA10AA8FEF7C7FF0AA8E9
:10479000FFF732FF10B010BD4E4F4445330000000C
:1047A0001400002054656D703A202564200000003C
:1047B00048756D693A202564200000004D6F6973CB
:1047C0003A20256420000000FDF7D8F8FEF767FDC9
:1047D000FEF7ECFAFEF764FBFEF7C2FAFEF782FB87
:1047E00021482049002401604FF4E131C0E901145F
:1047F0000C21C460C0E904418461C461FEF767F81C
:1048000008B172B6FEE71A48184901601949C0E9B3
:1048100001144FF48041C0E9034144618461C461E3
:104820000462FCF71BFF08B172B6FEE7FEF78CFBD3
:104830000D484838FDF7B8FF0D483038FCF7E2FC6A
:10484000FFF747FEFEF74AFAFEF7B4FB0A210A48D3
:10485000FEF7FAFBFDF721FF01210846FDF71EF9DF
:10486000F8E700000044004010020020005400401F
:10487000D4000020A08601007C00002001B582B099
:1048800000208DF80000FCF763FB6423012202A9DD
:104890000648FDF74AFD6423012269460348FDF7F7
:1048A00097FCFCF75DFB9DF800000EBD2801002081
:1048B00008B540F020008DF800008DF80110FCF7DD
:1048C00047FB4FF47A73022269460348FDF72DFD3A
:1048D000FCF746FB08BD00002801002038B540F079
:1048E000200014460D468DF80000FCF731FB6423D0
:1048F000012269460648FDF718FDA2B24FF47A730B
:1049000029460348FDF711FDFCF72AFB38BD0000DE
:104910002801002000B587B007287FD017287CD059
:1049200008210020FFF7C4FF3F210120FFF7C0FF4F
:1049300003210220FFF7BCFF03210846FFF7B8FF61
:1049400003210420FFF7B4FF02210520FFF7B0FF89
:104950000E210620FFF7ACFF00210720FFF7A8FF7C
:1049600000210820FFF7A4FF00210920FFF7A0FF86
:104970002FA00522D0E90010CDE9001069460A20D9
:10498000FFF7ACFF2CA00522D0E90010CDE9021002
:1049900002A90B20FFF7A2FFC3210C20FFF788FF1D
:1049A000C4210D20FFF784FFC5210E20FFF780FFF3
:1049B000C6210F20FFF77CFF1DA00522D0E90010C3
:1049C000CDE9041004A91020FFF788FF0021112071
:1049D000FFF76EFF00211220FFF76AFF002113206E
:1049E000FFF766FF00211420FFF762FF002115206A
:1049F000FFF75EFF00211620FFF75AFF1121172055
:104A0000FFF756FF00211C20FFF752FF00211D2059
:104A1000FFF74EFF07B000BD00E002E000210720D5
:104A200001E01121172007B05DF804EBFFF740BF4C
:104A3000E7E7E7E7E7000000C2C2C2C2C200000029
:104A400001B5FCF785FA6423012269460248FDF7A7
:104A50006CFCFCF785FA08BD280100202DE9F04127
:104A600007460025C8680C462E46B0F57A7F5BD213
:104A7000401CE0602168A068095C5B2954D1401C9F
:104A8000A0602046FFF73EFB4CB1D4E901108842FC
:104A900003D22268125C5D2A33D0884203D3A06817
:104AA000401EA06040E0401E04F11008A060404697
:104AB000FFF767FB98B30DB3306046600646A06809
:104AC000401CA0602046FFF71DFB2146304600F049
:104AD000D1F930B32046FFF715FB14B3D4E9011028
:104AE000884203D22168095C2C29E0D06268904298
:104AF00017D22168085C5D2813D102E005462E46D6
:104B0000DDE7E068401EE06005B16E602020C7E987
:104B10000250A068401CA0600120BDE8F081FFE7C2
:104B200015B12846FFF706FB0020F6E7034610B54F
:104B300000200246995CA1F13004092C01D83038DC
:104B40000AE0A1F14104052C01D8373804E0A1F1B5
:104B50006104052C08D857380844032A00D2000104
:104B6000521C042AE6D310BD002010BD2DE9F041EF
:104B700092B04FF0000506460C004FF02E03284679
:104B800010953CD02168D1B36A4627E027683944A4
:104B9000415C34291BD00ADCA1F12B07092F23D259
:104BA000DFE807F01522151722151515150038290D
:104BB0000DD006DC35290AD0362908D0372913D183
:104BC00005E0392903D0452901D065290CD11154BC
:104BD00000E01354401C3F2806D22CB1A168D4F841
:104BE00004C00F186745D1D31554904610A910463C
:104BF00000F038FA0F4610990546884503D1002089
:104C000012B0BDE8F081C6E90657114A114B28469B
:104C10003946FBF7ABFE02D86FF000400DE00022F2
:104C20000D4B28463946FBF789FE02D84FF000406D
:104C300003E028463946FBF74EFE70610820F0601D
:104C4000109AA168A2EB08000844A0600120D7E7F1
:104C50000000C0FFFFFFDF410000E0C12DE9F0418F
:104C600007460026C8680C463546B0F57A7F78D2EC
:104C7000401CE060002C74D0D4E90110884270D24E
:104C80002168095C7B296CD1401CA0602046FFF79D
:104C900039FAD4E90110884203D22268125C7D2AD5
:104CA0004CD08842A0F10100A0605AD204F1100853
:104CB0004046FFF766FAE8B3F6B12860456005465E
:104CC000A068401CA0602046FFF71CFA2146284639
:104CD00000F049F878B32046FFF714FA28692862F3
:104CE000002028613CB3D4E90110884236D2216803
:104CF000095C3A2932D102E006463546E0E7401C1D
:104D0000A0602046FFF7FEF92146284600F0B2F8E1
:104D100088B12046FFF7F6F9D4E90110884203D2A2
:104D20002168095C2C29C3D06268904216D22168A0
:104D3000085C01E011E011E07D280FD1E068401E21
:104D4000E06006B175604020C7E90260A068401CC1
:104D5000A0600120BDE8F08103E016B13046FFF706
:104D6000E9F90020F6E72DE9F84380468B680868EA
:104D70004FF00009C418CDF8009008680E46651C75
:104D8000C15C641C22296ED10022716808E0BCF16C
:104D90005C0F04D17F1C8F4265D2521C641C641CC2
:104DA000271A8F4204D294F800C0BCF1220FEED132
:104DB000271A8F4257D22178222954D11844201A19
:104DC000801A3169401C884707004CD0009737E0B3
:104DD00029785C2905D000986D1C00F8011B009013
:104DE0002EE00220611B012939DB6A78662A14D083
:104DF00008DC222A12D02F2A10D05C2A0ED0622A78
:104E00002DD108E06E2A0ED0722A0ED0742A0ED050
:104E1000752A24D10DE0082200E00C22009901F847
:104E2000012B00910BE00A22F8E70D22F6E7092298
:104E3000F4E76A462146284600F022F978B1054495
:104E4000A542C5D3009981F800901021C8E9031745
:104E50003068201A401CB0600120BDE8F88317B10B
:104E600071693846884715B13068281AB06000204B
:104E7000F3E7000070B50C0005465ED020680028FE
:104E80005BD0A16863680A1D9A4205D808440422D1
:104E900031A1FBF7A2F978B3A0686268411D012631
:104EA000914206D82168052208442DA1FBF795F907
:104EB00028B3A0686268011D914206D821680422C7
:104EC000084429A1FBF789F9E8B1D4E9010181423D
:104ED00003D22268525C222A1DD0814221D222684C
:104EE000525C2D2A02D0303A092A1AD82146284687
:104EF000BDE87040FFF73ABE0420E86006E0EE60CF
:104F0000A068401D04E002206E61E860A068001DFA
:104F1000A060012070BD21462846BDE87040FFF723
:104F200022BF814203D22268525C5B2A07D08142B1
:104F300003D22068405C7B2807D0002070BD21464A
:104F40002846BDE87040FFF789BD21462846BDE8E8
:104F50007040FFF783BE00006E756C6C00000000AF
:104F600066616C7365000000747275650000000076
:104F70002DE9F041144E00244FF001084FF4804712
:104F800039463046FCF752FB0028F9D02820FFF7BD
:104F9000A5F939463046FCF749FB0028C4F1070162
:104FA00008FA01F00ED02843C5B239463046FCF766
:104FB0003DFB0028F9D1641CE4B2082CE0D328465C
:104FC000BDE8F0818543F0E7000C01402DE9F04792
:104FD00004008A4616D054F8047CD4F800903E1F92
:104FE000564500D956462046FEF7C0FB0546884682
:104FF000324621465046FFF73BFA40B1C0F80090D8
:10500000BDE8F087BDE8F0470846FEF7DDBB44E9A0
:10501000017955B129686A18211F8A4202D9611B9A
:10502000091F2960C5F80480EAE7024AC2F8008037
:10503000E6E70000980000201FB5002200910192D1
:10504000029203926946FCF701FA1FBD1FB50022C8
:1050500000910121CDE90112022103916946FCF77B
:10506000F5F91FBD00B583B00A460021CDE9001156
:1050700001466846FBF751FDDDE9000103B000BDC4
:105080002DE9F04705460027481B164689460628A5
:105090005DDBA81CFFF74AFD0446A0F55C414FF418
:1050A0008060814253D3A4F55841824651451AD2BB
:1050B000A81DA9EB00014FF00C08062947DB017879
:1050C0005C2944D14178752941D1801CFFF72EFD20
:1050D000A0F55C4151453AD2C4F3090161F39F2028
:1050E00000F5803002E04FF006082046802801D20B
:1050F000012110E0B0F5006F02D20221C0270AE0C2
:10510000B0F5803F02D20321E02704E0B0F5881F0C
:105110001DD20421F0274A1E08E000BF00F0BF03A3
:10512000346843F080038009A354521E12F0FF023A
:10513000F4D1012901D9384301E000F07F00326841
:1051400010703068084430604046BDE8F0870020A9
:10515000FBE7000000000000000001020304060756
:1051600008090000000001020304004040404040E4
:10517000404040404141414141404040404040402A
:105180004040404040404040404040050202020252
:105190000202020202020202020202202020202059
:1051A0002020202020020202020202029090909011
:1051B00090901010101010101010101010101010EF
:1051C0001010101010100202020202028888888853
:1051D000888808080808080808080808080808084F
:1051E0000808080808080202020240006B51000883
:1051F0001052000800000020A40000001838000829
:10520000B4520008A4000020140800002838000848
:105210000000000000000000C93700086D370008DA
:10522000CD4F00080000000000000000000000005A
:10523000000000000000000000000000000000006E
:10524000000000000100000000000000000000005D
:10525000000000000000000000000000000000004E
:10526000000000000000000000000000000000003E
:10527000000000000000000000000000000000002E
:1052800000000000000000000000000011DDCCBBA9
:10529000AA00000001000000100000000000000053
:1052A0000024F400000000000000000000000000E6
:0452B00000000000FA
:04000005080000ED02
:00000001FF
