:020000040800F2
:10000000E805002001010008872100083B1F0008C7
:1000100085210008E10700086927000800000000AA
:10002000000000000000000000000000F5240008AF
:100030002508000800000000BD230008F724000880
:100040001B0100081B0100081B0100081B01000820
:100050001B0100081B010008270800081B010008FD
:100060001B0100081B0100081B0100081B01000800
:100070001B0100081B0100081B0100081B010008F0
:100080001B0100081B0100081B0100081B010008E0
:100090001B0100081B0100081B0100081B010008D0
:1000A0001B0100081B0100081B0100081B010008C0
:1000B0001B0100081B0100081B0100081B010008B0
:1000C0001B0100081B0100081B0100081B010008A0
:1000D0001B0100081B0100081B0100081B01000890
:1000E0001B0100081B0100081B010008DFF80CD0F1
:1000F00000F0FAFA00480047A92A0008E8050020A5
:100100000648804706480047FEE7FEE7FEE7FEE7B1
:10011000FEE7FEE7FEE7FEE7FEE7FEE773250008E1
:10012000ED000008202A04DB203A21FA02F0002129
:10013000704721FA02F3D040C2F1200291400843F7
:1001400019467047D2B201E000F8012B491EFBD2DC
:1001500070470022F6E710B513460A4604461946D2
:10016000FFF7F0FF204610BD421E12F8013F002BA2
:10017000FBD111F8013B02F8013B002BF9D170478C
:10018000421C10F8011B0029FBD1801A7047420065
:1001900005D0C0F3C7525242914201DC00207047A3
:1001A00000EBC15070472DE9FE4F804681EA030005
:1001B000C00F0C46009021F0004123F00045B8EB41
:1001C0000200A94105D24046214690461C460B46F6
:1001D000024623F00040104347D0270DC7F30A0022
:1001E000C3F30A510290401A019040286BDAC3F31E
:1001F000130040F4801B0098924620B10023D2EBFC
:10020000030A63EB0B0B01985946C0F140025046BC
:1002100000F0B4F906460D4650465946019A00F0E2
:10022000BCF910EB08006141002487EA115284EA0E
:10023000E7731A4340D0009A62B3019A012A4FEA49
:10024000075215DC001B61EB02014FF0004202EA8D
:100250000752CDE90042001C41F5801132462B4681
:1002600000F0F3F903B0BDE8F08F40462146F9E70E
:10027000001B61EB0201001C41F5801300185B417B
:100280002018A2F5001747EB030140EAD570B61914
:100290006D4111E06D084FEA360645EAC0754FEA38
:1002A0000752001B61EB0201001C41F58011490857
:1002B0004FEA30000019514132462B4603B0BDE8E9
:1002C000F04F00F0B3B90098012240000023D0EBBA
:1002D000020263EBE073009821464FEAE074B8EB4A
:1002E000000061EB0401E9E783F000435BE781F084
:1002F000004158E72DE9FE4F81EA030404F0004471
:1003000021F0004100944FF0000B23F0004350EA2D
:1003100001045ED052EA03045BD0C3F30A54C1F374
:100320000A552C44A4F2F3340194A0FB0254C1F307
:10033000130141F48011C3F3130343F4801301FB51
:10034000024400FB034E840A970A44EA815447EAB8
:100350008357A4FB076802958D0A05FB07854FEAC2
:10036000932C04FB0C542705029D4FEA065847EADC
:100370001637B5EB08056EEB070C870E920E47EAB1
:10038000811742EA8312A7FB0201B6EB0B0164EB73
:1003900000042B0D43EA0C335E1844EB1C50DA4684
:1003A0005146E7FB0201C5F313044FEA0B3343EA5E
:1003B00014534FEA0432019C43EA0603A4F10C04EF
:1003C0000294009CCDE900B400F03FF903B0BDE811
:1003D000F08F00200146F9E72DE9F04D81EA030492
:1003E00004F0004B21F0004514464FF0000A23F0C2
:1003F000004150EA050220D054EA01021DD0C5F3A5
:100400000A570246C5F31303C1F31300C1F30A569A
:1004100040F4801543F48013A7EB0608101BD64662
:1004200008F2FD3873EB050002D308F1010801E082
:1004300092185B41B8F1000F03DA00200146BDE8D5
:10044000F08D00204FF48011064684460EE0171B05
:1004500073EB050705D3121B63EB050306434CEA58
:10046000010C49084FEA300092185B4150EA01073D
:10047000EDD152EA030012D082EA040083EA0501BA
:10048000084305D0101BAB4106D20122002306E031
:1004900000224FF0004302E06FF0010253101AEB0C
:1004A00006004CEB085110EB0A0041EB0B01BDE8D4
:1004B000F04D00F0BBB896230022114600F088B83A
:1004C00000F0004220F00040C10DC0F3160040F4DF
:1004D00000007F2901DA00207047962903DCC1F172
:1004E0009601C84001E096398840002AF4D0404285
:1004F000704700F0004230F000400AD0C10D01F515
:100500006071C0F3160042EA0151C208400711436E
:10051000704700200146704701F0004330B421F0DD
:10052000004150EA010206D00A0DA2F56072C1F343
:100530001301002A02DC30BC00207047440F44EA5B
:10054000C104C100E01830BC00EBC25000F037B865
:1005500030B50B46014600202022012409E021FA93
:1005600002F59D4205D303FA02F5491B04FA02F590
:100570002844151EA2F10102F1DC30BD202A04DB63
:10058000203A00FA02F1002070479140C2F12003A6
:1005900020FA03F3194390407047202A06DBCB175B
:1005A000203A41FA02F043EAE07306E041FA02F32E
:1005B000D040C2F1200291400843194670470029FB
:1005C000A8BF7047401C490008BF20F001007047D9
:1005D00010B4B0FA80FC00FA0CF050EA010404BF39
:1005E00010BC704749B1CCF1200421FA04F411FA8F
:1005F0000CF118BF012121430843A3EB0C01CB1DD3
:100600004FEA00614FEA102042BF002010BC704743
:1006100000EBC35010440029A4BF10BC7047401C1D
:10062000490008BF20F0010010BC704710B5141E2F
:1006300073F1000408DA401C41F1000192185B419B
:100640001A4301D120F0010010BD2DE9F04D924672
:100650009B4611B1B1FA81F202E0B0FA80F2203289
:100660009046FFF78BFF04460F4640EA0A0041EA36
:100670000B0153465A46084313D0114653EA010072
:1006800019D0C8F140025046FFF74CFD05460E4612
:10069000504659464246FFF771FF084305D00120F6
:1006A00004E020463946BDE8F08D0020054346EAC7
:1006B000E0762C4337430A986305E40AA0EB080070
:1006C0000022FD0A44EA47540A3002D500200146C0
:1006D000E9E7010510196941DDE90845001969419B
:1006E000BDE8F04DA2E70000064C074D06E0E068CB
:1006F00040F0010394E8070098471034AC42F6D369
:10070000FFF7F8FCA42D0008C42D000870B50446BE
:1007100000688168C943C90717D1816821F00101C8
:10072000816000F091FB05460AE000BF00F08CFB01
:10073000401B022804D920688068C043C00706D047
:1007400020688068C043C007F0D0002070BDA06A58
:1007500040F01000A062E06A40F00100E062012079
:1007600070BD0000F8B50026044600960068816858
:10077000C943C9072DD0816841F001018160164845
:1007800016490068B0FBF1F000E0401E0090002820
:10079000FBD100F059FB054616E000BF00F054FB0A
:1007A000401B022810D920688068C043C0070BD0C6
:1007B000A06A40F01000A062E06A40F00100E06230
:1007C00084F824600120F8BD20688068C043C00719
:1007D000E4D10020F8BD00004400002040420F009A
:1007E000FEE7000000224FF48071014800F027BBB3
:1007F0000008014001221102014800F020BB000066
:100800000008014000224FF40071014800F017BBBE
:100810000008014001225102014800F010BB000015
:10082000000801407047012000F000BAF8B500242C
:10083000009490F824202546012A12D0012280F845
:1008400024204A681F23072A0DD20668776B521EA0
:1008500002EB820293409F430B6893401F437763F0
:1008600019E00220F8BD06680D2A0AD2376BD21FA4
:1008700002EB820293409F430B6893401F43376310
:1008800009E0F76A0D3A02EB820293409F430B683E
:1008900093401F43F7620A68072306680A2A0AD3AF
:1008A000F7680A3A02EB420293409F438B689340F9
:1008B0001F43F76008E0376902EB420293409F4311
:1008C0008B6893401F4337610A68102A01D0112AB0
:1008D00020D1124B02689A4217D193681B0219D497
:1008E000936843F4000393600968102912D10C49FE
:1008F0000C4A0968B1FBF2F101EB8101490000E00B
:10090000491E00910029FBD104E0816A41F02001D9
:100910008162012480F824502046F8BD0024014063
:100920004400002040420F000068C06C7047000087
:100930002DE9F0414FF0000704003D467ED0A06A4B
:10094000002628B9E66284F82460204600F07EF88C
:100950002046FFF7DBFEA16AC90600D420B1A06AD9
:1009600040F01000A06269E0A16A21F4885141F0D2
:100970000201A1626268E169237B0A4347EA4301FD
:100980000A43A1684FF48077B94209D0012907D002
:100990005FF0000194F814C0BCF1010F02D00AE02E
:1009A0003946F7E7F3B1A36A43F02003A362E36A91
:1009B00043F00103E3622368D3F804C02CF4694CCC
:1009C0004CEA010CC3F804C021688B68DFF870C0E2
:1009D00003EA0C0313438B60A168B9420BD00129D1
:1009E00009D00CE0DFF85CC0A3690CEB43330B4388
:1009F00043F40061DFE7218A0D05A5F58015216824
:100A0000CB6A23F470032B43CB62216889680E4BB9
:100A10001940914208D1E662A16A21F0020141F039
:100A20000101A162BDE8F081A06A20F0020040F05F
:100A30001000A062E06A40F00100E0620120F1E7EE
:100A4000FDF7E1FF00E0FFFFFE0E1FFF00B585B0E0
:100A50000021009101910291039100680E498842A2
:100A600018D10E48816941F400718161816901F4F6
:100A700000710491816941F00401816180696946D6
:100A800000F004000490022000900320019004482C
:100A900000F0D8F805B000BD00240140001002406D
:100AA0000008014070B5044690F8240001280DD0DC
:100AB000012084F824002046FFF754FE02004FF086
:100AC000000005D084F82400104670BD022070BDDF
:100AD000A16A40F20123994341F48071A1621F4D44
:100AE00023681F49AB4218D10E6816F4702F14D03A
:100AF000A66A46F48016A6620E68760505D5A66A33
:100B000026F4005646F48056A662A66AF6040AD574
:100B1000E66A26F00606E66206E0A66A26F4801675
:100B2000A6625E68E9E7E06284F824006FF00200E4
:100B3000186020688368C3F34243072B05D1A8429D
:100B400008D1096811F4702F04D0816841F4801134
:100B50008160B9E7816841F4A001F9E7002801400C
:100B60000424014070B5044600F06EF90546601C8F
:100B700002D004480078044400F066F9401BA0420B
:100B8000FAD370BD3800002070B500F0FDFC234C96
:100B9000002520684562012001F0D0F901283CD1F0
:100BA00004F1AC0001F016FB2068416A1CA001F0C2
:100BB000DDFD08211B4800F03AF901F021FF1A4839
:100BC000037C027E017D04F18C0001F09DFB206816
:100BD000456201F0D9FA14480A212D3001F07AFB60
:100BE00004F1AC0001F044FB2068416A0CA001F064
:100BF000BDFD01F0C9FA0C480A21323001F06AFB50
:100C000004F18C0001F034FB01F0BEFABDE8704045
:100C100005480A21283001F001BB70BD1C010020ED
:100C200025640A00000C014000000020044910B5B2
:100C30000A68024202D00860FFF7A6FF10BD00005C
:100C4000140401402DE9F84FDFF8B891002409F1B0
:100C5000040A0AF1040B23460F270BF1040EC9E026
:100C60000125A5402A40AA427DD1674ED1F804C093
:100C7000ACEB0608B44532D014DCBCF1030F3AD01B
:100C800009DCBCF1000F2AD0BCF1010F1CD0BCF173
:100C9000020F31D11DE0BCF1110F17D0BCF1120FC2
:100CA0002AD119E0B8F5881F19D006DCB8F5803FC5
:100CB00015D0B8F5801F1FD111E0B8F5001F0ED078
:100CC000B8F5041F18D10AE0CB6815E0CB681B1DEE
:100CD00012E0CB6808330FE0CB680C330CE08B6874
:100CE0002BB1012B4FF0080303D0456104E004232E
:100CF00002E0056100E00023FF2A01D8064601E07A
:100D000000F104064FEA840501D9A5F12005D6F8C3
:100D1000008007FA05FC28EA0C0803FA05F548EA02
:100D20000508C6F800804D68ED0062D5374DAE6904
:100D300046F00106AE61AD6924F0030605F0010539
:100D40000095334D06EB050CDCF80850A607360F6E
:100D500007FA06F825EA0805DFF8B880404503D110
:100D60004FF0000817E044E0DFF8AC80404502D1C6
:100D70004FF001080FE0DFF8A480404502D14FF0AA
:100D8000020808E0DFF89880404502D14FF00308E0
:100D900001E04FF0040808FA06F848EA0508CCF824
:100DA00008804D68D9F80060ED034D4601D5164323
:100DB00000E096432E604D68DAF80060AD035546BA
:100DC00001D5164300E096432E604D68DBF80060C5
:100DD000ED025D4601D5164300E096432E604D6856
:100DE000DEF80060AD02754601D5164300E096437B
:100DF0002E60641C0D682A46E5407FF431AFBDE8E3
:100E0000F88F0000000401400000111000100240A3
:100E10000000014000080140000C014000100140AA
:100E2000001401408068084000D001207047C2686B
:100E300021EA02030A4043EA0241016170470AB114
:100E4000016170470904FBE70148806870470000B2
:100E500038000020024881680278114481607047A0
:100E600038000020074810B5016841F0100101600A
:100E7000032000F075F8002000F006F800F024F8D8
:100E8000002010BD0020024070B50D4D04464FF407
:100E90007A712878B1FBF0F00A490968B1FBF0F0EB
:100EA00000F05BFE48B9102C07D200222146501EEC
:100EB00000F036F800206C6070BD012070BD0000AD
:100EC00038000020440000200C4808B5816941F03A
:100ED00001018161816901F001010091C16941F065
:100EE0008051C161C06900F08050009004484168A1
:100EF00021F0E06141F00071416008BD0010024046
:100F000000000140002809DB00F01F020121914090
:100F10004009800000F1E020C0F800117047000097
:100F2000F0B40E4B1B680C46C3F30223C3F1070554
:100F3000042D00D90425191D072901D2002300E042
:100F4000DB1E012606FA05F1491E214099409E400C
:100F5000761E16403143F0BC01F02CBC0CED00E0D5
:100F6000064900F0070208684FF6FF03184040EA00
:100F70000220034A10430860704700000CED00E0B7
:100F80000000FA050648026822F004020260012906
:100F900003D040BF20BF20BF704730BF7047000064
:100FA00010ED00E02DE9F84305460078354CC00708
:100FB00054D0E0690026C00008D4E06940F08050B9
:100FC000E061E069012600F0805000902E48016841
:100FD000C90512D40168804641F480710160FFF7B1
:100FE00033FF074605E000BFFFF72EFFC01B642854
:100FF00023D8D8F80000C005F6D5206A10F4407058
:1010000021D0A98801F4407181421CD0206A1F4977
:10101000012220F440700A6000220A602062C007AA
:1010200011D0FFF711FF074641F2883808E000BFF2
:10103000FFF70AFFC11B414502D90320BDE8F88331
:10104000206A8007F4D5206A696820F4407008435C
:1010500020621EB1E06920F08050E06128788007AE
:1010600005D56068A96820F440400843606028788E
:10107000C00605D56068E96820F480000843606018
:101080000020DBE7001002400070004040044242B4
:101090002DE9F0470F46050061D0434E306800F05F
:1010A0000700B84209D2306820F0070038433060AA
:1010B000306800F00700B84251D128683B4C8107E6
:1010C00012D5400703D5606840F4E060606028787E
:1010D000000703D5606840F4605060606068A968EC
:1010E00020F0F000084360602878C00728D06868C6
:1010F000012810D02168022810D0890700292EDA93
:10110000616821F0030101436160FFF79DFE8046A5
:1011100041F288390DE021688903EFE78901EDE7A5
:10112000FFF792FEA0EB0801494502D90320BDE874
:10113000F0876068696800F00C00B0EB810FEFD1B8
:10114000306800F00700B8420BD9306820F0070083
:1011500038433060306800F00700B84201D0012009
:10116000E5E72878400705D56068E96820F4E06085
:10117000084360602878000706D56068296920F474
:10118000605040EAC100606000F038F86168084AC9
:10119000C1F30311515CC840064908600648006865
:1011A000FFF772FE0020C2E700200240001002405C
:1011B0008C2D0008440000203C0000200448054914
:1011C00000684968044AC1F30221515CC840704775
:1011D00044000020001002409C2D000804480549EE
:1011E00000684968044AC1F3C221515CC840704795
:1011F00044000020001002409C2D000812A185B080
:101200000FC98DE80F0014A0144A006804905168BB
:10121000134801F00C03042B10D0082B0ED1C1F39E
:101220008343C9031DF803000AD5516804AAC1F31A
:101230004041515C0A4A5043B0FBF1F005B07047A1
:1012400008494843FAE700000203040506070809B5
:101250000A0B0C0D0E0F10100102000000100240CE
:1012600000127A0000093D002DE9F84F040070D00B
:101270002078C04DC00749D06868C0F381000128BC
:1012800007D06868C0F38100022809D16868C003EC
:1012900006D52868800339D560680028E7D035E096
:1012A0006068B0F5803F0BD010B1B0F5A02F11D021
:1012B000286820F480302860286820F4802002E02C
:1012C000286840F480302860606890B1FFF7BCFD6A
:1012D00006460AE0286840F480202860F0E700BF56
:1012E000FFF7B2FD801B642873D828688003F7D508
:1012F0000CE0FFF7A9FD064605E000BFFFF7A4FDDF
:10130000801B6428F0D828688003F7D420789A4E90
:1013100080074FF001094FF0000839D5686810F0D8
:101320000C0F07D06868C0F38100022809D16868F3
:10133000C00306D42868800714D52069012808D185
:1013400010E02069B0B1C6F80090FFF77DFD0746B8
:1013500005E00AE1FFF778FDC01B0228C4D8286821
:101360008007F7D52868616920F0F80040EAC100DD
:1013700028600DE0C6F80080FFF766FD074604E030
:10138000FFF762FDC01B022823D828688007F7D426
:10139000207800072CD57948A169D9B1C0F8009010
:1013A000FFF752FD074604E0FFF74EFDC01B022881
:1013B0000FD8686A8007F7D571484FF4FA51006872
:1013C000B0FBF1F0009000BF0098411E0091FAD2EE
:1013D0000EE080E0C0F80080FFF736FD074604E02D
:1013E000FFF732FDC01B022875D8686A8007F7D462
:1013F0002078400760D5E8690027C00008D4E86974
:1014000040F08050E861E869012700F080500090CA
:101410005C480168C90513D40168834641F48071B2
:101420000160FFF711FD824606E000BFFFF70CFDEB
:10143000A0EB0A0064284ED8DBF80000C005F5D503
:10144000E06801280AD008B1052813D0286A20F0E6
:1014500001002862286A20F0040002E0286A40F0B7
:1014600001002862E06841F2883B98B1FFF7ECFC8C
:1014700082460BE0286A40F004002862EEE700BFD5
:10148000FFF7E2FCA0EB0A0159455AD8286A800709
:10149000F6D50CE0FFF7D8FC824605E0FFF7D4FC58
:1014A000A0EB0A0159454CD8286A8007F6D41FB131
:1014B000E86920F08050E861E06988B36968C1F3A9
:1014C0008101022944D00228C6F8608004D0FFF7C9
:1014D000BBFC044638E034E0FFF7B6FC074604E006
:1014E000FFF7B2FCC01B02282BD828688001F7D474
:1014F000206AB0F5803F05D16868A16820F400300B
:1015000008436860D4E908010843696821F474114C
:1015100008436860C6F86090FFF796FC044606E052
:1015200025E000BFFFF790FC001B022809D82868BF
:101530008001F7D51BE000BFFFF786FC001B0228E7
:1015400002D90320BDE8F88F28688001F4D40EE0AA
:101550000128F7D06868226A00F48031914204D1F2
:10156000616A00F47010884201D00120EAE700208F
:10157000E8E70000001002400000424280044242BE
:1015800044000020007000404FF0E020016941F06D
:1015900002010161704770B5040009D0606A00253E
:1015A00040B125616561A56294F8510040B10CE03D
:1015B000012070BD6068B0F5827FF4D0E561F2E78C
:1015C00084F85050204600F03FF8022084F8510083
:1015D0002068016821F040010160A088218900F4A1
:1015E000827001F404410843A18901F400610843B9
:1015F000217C01F002010843217D01F00101084333
:10160000218B01F400710843217F01F03801084368
:1016100094F8201001F080010843218D01F400515D
:10162000084321680860A069042101EA104021688C
:1016300048602068C16921F40061C16165650120CD
:1016400084F85100002070BD30B585B000240094AE
:1016500001940294039400681449884223D11448E9
:10166000816941F480518161816901F48051049163
:10167000816941F00401816180690E4D00F0040030
:101680000490A0200090022001900320039069465E
:101690002846FFF7D7FA4020CDE9000469462846DE
:1016A0000294FFF7CFFA05B030BD000000300140D2
:1016B00000100240000801402DE9F84F0446406840
:1016C0000025984616460F464FF0040BB0F5827F72
:1016D00001D1A06888B194F85000012818D00120E9
:1016E00084F85000FFF7B0FB814694F851004FF0AA
:1016F000000A01280ED0022582E084F851B013467A
:101700000A462046CDF8008000F036F9BDE8F88F93
:101710000220FBE7002F72D0002E70D084F851B069
:10172000C4F854A0A763A687E687C4F830A0A4F83D
:1017300034A0A4F836A0C4F840A0C4F844A0A0681F
:10174000B0F5004F09D12068016821F04001016027
:101750002068016821F48041016020680168490621
:1017600003D4016841F040010160E068D8B139E07C
:1017700020688168C90709D0007BA16B0870A06B45
:10178000401CA063E08F401EE0870CE0FFF75CFB8D
:10179000A0EB0901414503D3B8F1FF3F03D036E088
:1017A000B8F1000F33D0E08F0028E1D11DE02068B0
:1017B0008168C90709D0C068A16B0880A06B801C34
:1017C000A063E08F401EE0870CE0FFF73DFBA0EB3D
:1017D0000901414503D3B8F1FF3F03D017E0B8F149
:1017E000000F14D0E08F0028E1D14A464146204640
:1017F00000F0E5FD08B120206065606D00B10125B5
:10180000012084F8510084F850A028467EE7032583
:10181000F6E72DE9F84F044690F8500000271D46E2
:101820001646894601280DD04FF0010B84F850B0C0
:10183000FFF70AFB804694F85100BA46012804D00D
:10184000022793E00220BDE8F88FB9F1000F73D0B2
:10185000002E71D0032084F85100C4F854A0C4F8BD
:101860003090A686E686C4F838A0A4F83CA0A4F878
:101870003EA0C4F844A0C4F840A0A068B0F5004F52
:1018800009D12068016821F04001016020680168E9
:1018900041F48041016020680168490603D4016871
:1018A00041F040010160E068B0F5006F606803D06E
:1018B00030B3012E24D041E008B1012E1CD1206BA1
:1018C00021680088C86006E020688168890709D51A
:1018D000216B0988C160206B801C2063E08E401E54
:1018E000E08609E0FFF7B0FAA0EB0800A84202D3B7
:1018F000681C01D031E07DB3E08E0028E4D120E007
:10190000206B21680078087306E0206881688907E9
:1019100009D5216B09780173206B401C2063E08E90
:10192000401EE0860AE0FFF78FFAA0EB0800A8420D
:1019300003D3681C02D010E017E06DB1E08E0028E0
:10194000E3D142462946204600F067FD08B1202039
:101950006065A06818B106E0FFE7032706E020688D
:10196000C16880680090606D00B1012784F851B0B3
:1019700084F850A0384666E72DE9F84F044690F801
:10198000500000270A9E1D4692468B464FF00109E3
:1019900001280ED0012084F85000FFF755FA804648
:1019A00094F85100616801280CD0B1F5827F07D10D
:1019B00002E00220BDE8F88FA16809B9042801D02F
:1019C0000227C2E0BBF1000F27D0BAF1000F24D0EC
:1019D0001DB394F85100042802D0052084F851006A
:1019E00000206065C4F838A0E587A587C4F830B04A
:1019F000E586A5862064606420680168490603D4F2
:101A0000016841F040010160E068B0F5006F606876
:101A100005D0E8B3012D46D07FE0012795E008B15D
:101A2000012D39D1206B21680088C860206B801C93
:101A30002063E08E401EE0862EE0206881688907E2
:101A40000FD5E18E69B1B9F1010F0AD1216B098877
:101A5000C160206B801C2063E08E401EE0864FF04A
:101A6000000920688168C9070CD0E18F51B1C068B6
:101A7000A16B0880A06B801CA063E08F401EE087F4
:101A80004FF00109FFF7E0F9A0EB0800B04200E0D9
:101A900009E001D3701C50D1E08E0028CDD1E08F39
:101AA0000028CAD13FE0206B216800780873206BC2
:101AB000401C2063E08E401EE0862EE02068816896
:101AC00089070FD5E18E69B1B9F1010F0AD1216BF8
:101AD00009780173206B401C2063E08E401EE08675
:101AE0004FF0000920688168C9070CD0E18F51B11F
:101AF000C068A16B0870A06B401CA063E08F401E03
:101B0000E0874FF00109FFF79FF9A0EB0800B04212
:101B100002D3701C01D010E07EB1E08E0028CDD140
:101B2000E08F0028CAD142463146204600F075FCBD
:101B300028B101272020606507E0032705E0A068A1
:101B400018B92068C16880680090012084F85100AD
:101B5000002084F8500038462CE710B5401EB0F144
:101B6000807F01D3012010BD4FF0E02460610F2180
:101B7000601700F01FFE0020A061072020610020F8
:101B800010BD4FF0E020016921F0020101617047B2
:101B900070B590F83C20012A26D0012480F83C4002
:101BA000022280F83D2003685A689D6822F0700682
:101BB0000A6832435A600D4B02689A4208D0B2F16B
:101BC000804F05D00A4B9A4202D00A4B9A4204D168
:101BD000496825F080031943916080F83D40002159
:101BE00080F83C10084670BD022070BD002C0140FA
:101BF000000400400008004010B5040003D094F831
:101C00003D0010B107E0012010BD002084F83C0029
:101C1000204600F01FF8022084F83D00211D2068B6
:101C200000F0A8FC012084F8460084F83E0084F807
:101C30003F0084F8400084F8410084F8420084F8B2
:101C4000430084F8440084F8450084F83D000020F7
:101C500010BD000008B501680B48B1F1804F0BD0F2
:101C60000A4A914207D1C16941F00401C161C069CA
:101C700000F00400009008BDC16941F00101C1619C
:101C8000C06900F00100F5E70010024000080040C4
:101C900090F83D10012901D001207047022180F801
:101CA0003D1000680B49884208D0B0F1804F05D044
:101CB0000949884202D00949884204D1816801F06B
:101CC0000701062903D0016841F0010101600020ED
:101CD00070470000002C0140000400400008004054
:101CE00070B5044690F83C00012817D0012584F80F
:101CF0003C50022084F83D002068826822F0770280
:101D000022F47F4282600868502830D00DDC202801
:101D10004DD005DC98B310283BD148E0022070BDBF
:101D2000302844D0402834D139E0602828D07028A9
:101D300006D0B0F5805F2CD0B0F5005F29D10AE065
:101D4000CB68D1E90121206800F04AFC2068816855
:101D500041F0770109E0CB68D1E90121206800F06A
:101D60003FFC2068816841F48041816011E0CA68CD
:101D70004968206800F046FC5021206807E016E022
:101D8000CA684968206800F04EFC6021206800F0B5
:101D900031FC84F83D50002084F83C0070BDCA68D6
:101DA0004968206800F02EFC40212068EFE7226897
:101DB00001461046EBE770B5040004D094F83D00EE
:101DC000002510B106E0012070BD84F83C5020468B
:101DD00000F022F8242084F83D002068C16821F436
:101DE0000051C160204600F031FC2068016921F4F7
:101DF000904101612068416921F02A014161206818
:101E0000C16841F40051C1602564202084F83D0080
:101E100084F83E00002070BD30B585B000240094E9
:101E200001940294039400681449884223D1144811
:101E3000C16941F40031C161C16901F4003104910B
:101E4000816941F00401816180690E4D00F0040058
:101E50000490042000900220019003200390694622
:101E60002846FEF7EFFE0820CDE900046946284623
:101E70000294FEF7E7FE05B030BD000000440040CC
:101E800000100240000801402DE9F843044690F894
:101E90003D001F4616460D4620284CD1C5B1BEB1A7
:101EA00094F83C00012846D0012084F83C004FF013
:101EB0000008C4F84080212084F83D00FEF7C4FFEC
:101EC000A6848146E684A068B0F5805F03D004E074
:101ED0000120BDE8F883206928B12E465FF0000597
:101EE00084F83C800EE00026FAE78021204600F0CE
:101EF00009FCA0B9AEB116F8010B21684860E08C6E
:101F0000401EE084E08C4B464FF000020097002812
:101F1000EBD14FF04001204600F0F4FB30B103203C
:101F2000D7E735F8020BC0F30800E6E7202084F875
:101F30003D000020CDE70220CBE7FEE710B50446C8
:101F4000072000F0EFFD410608D510EA440F05D048
:101F50004021072000F000FE012010BD002010BD30
:101F60003EB5002410480094019402940D49846009
:101F7000016001250573047505614FF4602144601B
:101F8000C161FEF7D5FC08B172B6FEE70095CDE958
:101F9000015469460448FEF749FC002801D072B696
:101FA000FEE73EBD002401404C0000202DE9F04337
:101FB00085B000252B480095019502950395816910
:101FC00041F020018161816901F020010491816962
:101FD00041F004018161816901F00401049181698A
:101FE00041F0080181618069DFF87C8000F0080021
:101FF0000122049091034046FEF721FFDFF86C9028
:102000004FF44077002239464846FEF718FF002279
:1020100008214046FEF713FF012415486946CDE923
:10202000004040460294FEF70DFE44F208000226EE
:102030008DE8710069464046FEF704FE01AA00974C
:1020400082E8700069464846FEF7FCFD0022012147
:102050000620FEF765FF0620FEF754FF05B0BDE839
:10206000F083000000100240000C01400008014015
:10207000000021100F4810B50D4901604FF4827126
:10208000416000218160C1604FF400720161C0E9CC
:1020900005121822C0E90721416281620A21C1624A
:1020A000FFF779FA002801D072B6FEE710BD0000F4
:1020B000003001407C00002010B586B00024164896
:1020C000009401940294039404944FF08041059489
:1020D00001604721C0E901144FF6FF71C0E9031404
:1020E0008461FFF789FD08B172B6FEE74FF48050B6
:1020F000009069460848FFF7F3FD08B172B6FEE7A5
:10210000049404A904480594FFF742FD002801D077
:1021100072B6FEE706B010BDD400002010B586B040
:1021200000241748009401940294039404941349E2
:10213000059401604721C0E901144FF6FF71C0E921
:1021400003148461FFF758FD08B172B6FEE74FF43F
:102150008050009069460A48FFF7C2FD08B172B688
:10216000FEE7049404A906480594FFF711FD002832
:1021700001D072B6FEE706B010BD000000080040B6
:102180001C010020FEE7FEE710B5FEF72BFB002048
:1021900000F014FD0021084600F0DEFC00210120C3
:1021A00000F0DAFC0021022000F0D6FC03210846F2
:1021B00000F0D2FC0021042000F0CEFC002105201C
:1021C00000F0CAFC0E21062000F0C6FCBDE810405D
:1021D000FEF710BB38B5044600208DF80000FEF76E
:1021E00011FB61208DF800006423012269460A4832
:1021F000FFF70FFB4FF47A73202221460648FFF7C2
:102200005BFAFEF707FB0120FEF7ACFCE2208DF83D
:10221000000000F069FD38BD7C00002070B50D465F
:102220000446FEF7DFFA072000F0C8FC2946052027
:1022300000F092FC022000F075FC40F00201022048
:1022400000F08AFC052221460B2000F09BFC202197
:10225000122000F081FC002000F064FC40F023011B
:10226000002000F079FCBDE87040FEF7C3BA000022
:1022700038B5044600208DF80000FEF7C3FAA02010
:102280008DF800006423012269461148FFF7C1FA66
:102290004FF47A73202221460D48FFF7BAFAFEF771
:1022A000B9FA0120FEF75EFC172000F03BFCC106E6
:1022B0000BD5000709D4E1208DF8000000F014FDD3
:1022C000172000F07BFC012038BD002038BD000045
:1022D0007C00002070B50D460446FEF783FA2946BF
:1022E000052000F039FC05222146102000F04AFCB0
:1022F000002000F017FC40F02201002000F02CFC30
:10230000BDE87040FEF776BA2DE9F043002489B0AD
:102310001F46914688460546264601E02E55641C18
:102320002846FDF72DFFA042F8D83A461AA106A884
:1023300000F02CFA424618A1684600F027FA4A46F7
:1023400015A103A800F022FA14A12846FDF70CFFFE
:1023500069462846FDF708FF12A12846FDF704FF4D
:1023600011A12846FDF700FF03A92846FDF7FCFE52
:102370000CA12846FDF7F8FE0DA12846FDF7F4FE56
:1023800006A92846FDF7F0FE0BA12846FDF7ECFE56
:1023900009B0BDE8F0830000256400007B225432C0
:1023A000223A2200222C0000224832223A22000047
:1023B000224D32223A220000227D00007047F8B5FB
:1023C000044640684FF48273984217D1A0684FF4D6
:1023D0008065B0F5004F01D0A8420FD12068066893
:1023E00026F0400606606068984207D1A068A842BF
:1023F00004D100920B460022012103E000920B461B
:1024000000228021204600F019F8002804D0606DD9
:1024100040F0200060650320F8BD38B50B460092FF
:1024200004460022802100F009F8002804D0606DE5
:1024300040F020006065032038BD00002DE9F8431E
:102440001E46914688460446089DFEF7FDFC401B4B
:10245000351AFEF7F9FC074625480068C0F3CB3073
:10246000684338E0701C37D0FEF7EEFCC01BA84272
:1024700003D215B1009860B32CE02068416821F0C8
:10248000E00141606068B0F5827F0BD1A068B0F5D3
:10249000004F02D0B0F5806F04D12068016821F0B0
:1024A00040010160A06AB0F5005F09D120680168B1
:1024B00021F4005101602068016841F4005101607D
:1024C000012084F85100002084F850000320BDE86A
:1024D000F8830025401E00902068816838EA0100DA
:1024E00004D000214945BDD10020F0E70121F9E7E2
:1024F000440000207047FEF7ADBC30B593B02821F2
:102500006846FDF726FE14210AA8FDF722FE0025E5
:1025100001200F9510951195010412958DE8230067
:1025200004904FF4E010CDE90810022407946846A7
:10253000FEF79AFE08B172B6FEE70AA90F2081E8FD
:1025400031004FF48060CDE90D0502210AA8FEF7A5
:102550009FFD08B172B6FEE74FF4004011900F9452
:102560000FA8FEF71FFD002801D072B6FEE713B0DA
:1025700030BD7047F0B50268164B174C174D4FF041
:102580008047984205D0B84203D0A04201D0A8426B
:1025900003D122F070064A683243984205D0B8420F
:1025A00003D0A04201D0A84203D122F44074CA68EB
:1025B00022434C6922F08002224302608A68C26290
:1025C0000A688262984201D109690163012141616F
:1025D000F0BD0000002C0140000400400008004055
:1025E00010B5846842EA032224F47F440A4322435C
:1025F000826010BD826822F070020A4342F0070137
:102600008160704710B5036A046A24F00104046213
:10261000846924F0F00444EA021423F00A020A4315
:102620008461026210BD10B5036A23F010030362D7
:102630008369046A23F4704343EA023224F0A0035E
:1026400043EA01118261016210BD000070B50446C9
:1026500000680169E26821F4405111430161216978
:10266000A0680843616908432168CA6841F20C63A5
:102670009A430243CA6020684169A26921F440710B
:10268000114341611E492068884202D1FEF7A6FD30
:1026900001E0FEF793FD00EBC00101EB0012606862
:1026A00064218000B2FBF0F3B3FBF1F36FF0180686
:1026B0007343B2FBF0F5B2FBF0F605EB8305322372
:1026C00003EB0515B5FBF1F5B6FBF1F605F0F005EA
:1026D00005EB0615B2FBF0F6B2FBF0F0B0FBF1F043
:1026E0006FF01802504306EB800003EB0010B0FBC4
:1026F000F1F0216800F00F002844886070BD0000F0
:10270000003801402DE9F041984617460E46044630
:10271000069D1DE0681C1BD02DB1FEF795FBA0EBBC
:102720000800A84214D92068C16821F4D071C160A2
:102730002068416921F001014161202084F83D00B9
:1027400084F83E00002084F83C000320BDE8F081BE
:102750002068006836EA000004D00020B842D9D0D2
:102760000020F3E70120F9E7FEE700000FB4054B76
:1027700010B503A9044A029800F03CF810BC5DF8BB
:1027800014FB0000E9290008480000200FB4084BA2
:1027900010B504A902AA039800F02CF8044602A977
:1027A000002000F0D1F8204610BC5DF814FB0000BA
:1027B000492900080907090E002804DB00F1E02080
:1027C00080F80014704700F00F0000F1E02080F85E
:1027D000141D704702E008C8121F08C1002AFAD170
:1027E00070477047002001E001C1121F002AFBD191
:1027F000704700002DE9FF4F89B09B460446002535
:1028000006E025280BD05A460B999047641C6D1C96
:1028100020780028F5D10DB02846BDE8F08F0027BC
:10282000B8460122474900E0074314F8013F203B26
:1028300002FA03F00842F7D120782E2819D114F8B3
:10284000010F47F004072A280ED06FF02F022078DE
:10285000A0F1300109290CD808EB880102EB4101F5
:1028600000EB0108641CF2E70A98641C50F8048B22
:102870000A9020780028CED0642808D0692806D095
:1028800075281ED05A460B9990476D1C58E00A993E
:102890004FF00A0901C90A91002802DA40422D21AD
:1028A00002E0390504D52B218DF82010012103E029
:1028B000F90704D02021F7E78A4608AE0DE0002191
:1028C000FAE70A994FF00A0901C90A91F7E7494660
:1028D000FDF73EFE303106F8011D0028F7D1ADEBC3
:1028E000060000F12009780701D44FF00108C8451F
:1028F00002DDA8EB090000E000208046002706E08A
:1029000008A85A46C05D0B9990476D1C7F1C57451F
:10291000F6DB04E030205A460B9990476D1CB8F165
:102920000001A8F10108F5DC05E016F8010B5A4694
:102930000B9990476D1CB9F10001A9F10109F4DC74
:10294000641C65E7092801000A68531C0B601070BD
:102950007047000070B5282000F01AF80B4D4FF4B6
:10296000804421462846FEF75DFA60B9502000F009
:102970000FF821462846FEF755FA20B1322000F024
:1029800007F8012070BD002070BD0000000C014060
:10299000044900220B685A6209684A6A8242FCD3E1
:1029A00070470000D400002070B50E4D4FF48044F5
:1029B0002146284600F0DEF9002221462846FEF78F
:1029C0003EFA1920FEF7CEF8012221462846FEF7EE
:1029D00036FA1E20FFF7DCFF21462846BDE870408E
:1029E00000F0BEB9000C014013B54FF6FF73012291
:1029F00069460248FFF748FA00981CBD64010020B0
:102A000070B52548FFF744F9FFF7CEFFFFF7A2FFA7
:102A1000224C208000F076F9608000F073F9A080ED
:102A200000F070F9E08000F06DF9208100F06AF9A3
:102A30006081E088E0816188A181C4E905011648D0
:102A40008838FDF771FFFDF736FD6FF00B0120624E
:102A5000FDF79DFBFDF74DFD114E4FF066352A4603
:102A60003346FDF747FCFDF757FDE061FDF741FDFB
:102A70002A463346FDF7B0FC0A4D00222B46FDF7EF
:102A800039FC00222B46FDF732FCFDF745FD606264
:102A9000FDF716FD206170BDD4000020000000206D
:102AA00066660A4000005940FEF7DCF9FFF725FD95
:102AB000FFF77CFAFFF7DEFA174816490C2201608F
:102AC0004FF4E131416000218160C160C0E904122E
:102AD0008161C161FFF76FF908B172B6FEE7FFF7D8
:102AE0003FFAFFF7E9FAFFF719FB0B484838FFF701
:102AF000CFF80A48FDF7D6FFFFF746FB0A21084842
:102B0000FFF78CFBFFF73DF801210846FEF73AFA84
:102B1000F8E7000000440040640100204C00002061
:102B20002800002001B582B000208DF80000FDF7DC
:102B300069FE6423012202A90648FEF76AFE6423A7
:102B4000012269460348FEF7B7FDFDF763FE9DF8D5
:102B500000000EBD7C00002008B540F020008DF87C
:102B600000008DF80110FDF74DFE4FF47A7302223C
:102B700069460348FEF74DFEFDF74CFE08BD000018
:102B80007C00002038B540F0200014460D468DF83A
:102B90000000FDF737FE6423012269460648FEF770
:102BA00038FEA2B24FF47A7329460348FEF731FE8D
:102BB000FDF730FE38BD00007C00002000B587B076
:102BC00007287FD017287CD008210020FFF7C4FFFA
:102BD0003F210120FFF7C0FF03210220FFF7BCFFC8
:102BE00003210846FFF7B8FF03210420FFF7B4FFD5
:102BF00002210520FFF7B0FF0E210620FFF7ACFFF2
:102C000000210720FFF7A8FF00210820FFF7A4FFFD
:102C100000210920FFF7A0FF2FA00522D0E9001016
:102C2000CDE9001069460A20FFF7ACFF2CA0052271
:102C3000D0E90010CDE9021002A90B20FFF7A2FF96
:102C4000C3210C20FFF788FFC4210D20FFF784FF6C
:102C5000C5210E20FFF780FFC6210F20FFF77CFF64
:102C60001DA00522D0E90010CDE9041004A9102010
:102C7000FFF788FF00211120FFF76EFF00211220CF
:102C8000FFF76AFF00211320FFF766FF00211420E1
:102C9000FFF762FF00211520FFF75EFF00211620DD
:102CA000FFF75AFF11211720FFF756FF00211C20C4
:102CB000FFF752FF00211D20FFF74EFF07B000BDB8
:102CC00000E002E00021072001E01121172007B0F9
:102CD0005DF804EBFFF740BFE7E7E7E7E700000038
:102CE000C2C2C2C2C200000001B5FDF78BFD642361
:102CF000012269460248FEF78CFDFDF78BFD08BDF9
:102D00007C0000202DE9F041144E00244FF0010812
:102D10004FF4804739463046FEF784F80028F9D052
:102D20002820FFF735FE39463046FEF77BF80028AD
:102D3000C4F1070108FA01F00ED02843C5B23946A4
:102D40003046FEF76FF80028F9D1641CE4B2082C75
:102D5000E0D32846BDE8F0818543F0E7000C014050
:102D60001FB5002200910192029203926946FDF77D
:102D700069FF1FBD1FB5002200910121CDE901129D
:102D8000022103916946FDF75DFF1FBD00000000B1
:102D9000000000000102030406070809000000000B
:102DA00001020304C42D0008000000204C000000B4
:102DB000D4270008102E00084C0000209C050000BD
:102DC000E4270008000000000000000000000000F0
:102DD00000000000000000000000000000000000F3
:102DE00000000000000000000000000000DDCCBB7F
:102DF000AA11DDCCBBAA22DDCCBBAA0001000000D9
:102E000010000000000000000024F400000000009A
:04000005080000ED02
:00000001FF
